{
	"contracts/Swap.sol": {
		"TokenSwap": {
			"abi": [
				{
					"inputs": [
						{
							"internalType": "address",
							"name": "_tokenA",
							"type": "address"
						},
						{
							"internalType": "address",
							"name": "_tokenB",
							"type": "address"
						},
						{
							"internalType": "address",
							"name": "_priceFeedA",
							"type": "address"
						},
						{
							"internalType": "address",
							"name": "_priceFeedB",
							"type": "address"
						},
						{
							"internalType": "uint256",
							"name": "_swapPercent",
							"type": "uint256"
						}
					],
					"stateMutability": "nonpayable",
					"type": "constructor"
				},
				{
					"anonymous": false,
					"inputs": [
						{
							"indexed": true,
							"internalType": "address",
							"name": "user",
							"type": "address"
						},
						{
							"indexed": false,
							"internalType": "uint256",
							"name": "amountA",
							"type": "uint256"
						},
						{
							"indexed": false,
							"internalType": "uint256",
							"name": "amountB",
							"type": "uint256"
						}
					],
					"name": "Swap",
					"type": "event"
				},
				{
					"inputs": [
						{
							"internalType": "uint256",
							"name": "amountA",
							"type": "uint256"
						}
					],
					"name": "swap",
					"outputs": [],
					"stateMutability": "nonpayable",
					"type": "function"
				},
				{
					"inputs": [],
					"name": "swapPercent",
					"outputs": [
						{
							"internalType": "uint256",
							"name": "",
							"type": "uint256"
						}
					],
					"stateMutability": "view",
					"type": "function"
				},
				{
					"inputs": [],
					"name": "tokenA",
					"outputs": [
						{
							"internalType": "contract ICustomERC20",
							"name": "",
							"type": "address"
						}
					],
					"stateMutability": "view",
					"type": "function"
				},
				{
					"inputs": [],
					"name": "tokenADecimals",
					"outputs": [
						{
							"internalType": "uint8",
							"name": "",
							"type": "uint8"
						}
					],
					"stateMutability": "view",
					"type": "function"
				},
				{
					"inputs": [],
					"name": "tokenB",
					"outputs": [
						{
							"internalType": "contract ICustomERC20",
							"name": "",
							"type": "address"
						}
					],
					"stateMutability": "view",
					"type": "function"
				},
				{
					"inputs": [],
					"name": "tokenBDecimals",
					"outputs": [
						{
							"internalType": "uint8",
							"name": "",
							"type": "uint8"
						}
					],
					"stateMutability": "view",
					"type": "function"
				}
			],
			"devdoc": {
				"kind": "dev",
				"methods": {},
				"version": 1
			},
			"evm": {
				"assembly": "    /* \"contracts/Swap.sol\":153:2424  contract TokenSwap {... */\n  mstore(0x40, 0x80)\n    /* \"contracts/Swap.sol\":660:1165  constructor(... */\n  callvalue\n  dup1\n  iszero\n  tag_1\n  jumpi\n  0x00\n  dup1\n  revert\ntag_1:\n  pop\n  mload(0x40)\n  sub(codesize, bytecodeSize)\n  dup1\n  bytecodeSize\n  dup4\n  codecopy\n  dup2\n  dup2\n  add\n  0x40\n  mstore\n  dup2\n  add\n  swap1\n  tag_2\n  swap2\n  swap1\n  tag_3\n  jump\t// in\ntag_2:\n    /* \"contracts/Swap.sol\":855:862  _tokenA */\n  dup5\n    /* \"contracts/Swap.sol\":833:839  tokenA */\n  0x00\n  dup1\n    /* \"contracts/Swap.sol\":833:863  tokenA = ICustomERC20(_tokenA) */\n  0x0100\n  exp\n  dup2\n  sload\n  dup2\n  0xffffffffffffffffffffffffffffffffffffffff\n  mul\n  not\n  and\n  swap1\n  dup4\n  0xffffffffffffffffffffffffffffffffffffffff\n  and\n  mul\n  or\n  swap1\n  sstore\n  pop\n    /* \"contracts/Swap.sol\":896:903  _tokenB */\n  dup4\n    /* \"contracts/Swap.sol\":874:880  tokenB */\n  0x01\n  0x00\n    /* \"contracts/Swap.sol\":874:904  tokenB = ICustomERC20(_tokenB) */\n  0x0100\n  exp\n  dup2\n  sload\n  dup2\n  0xffffffffffffffffffffffffffffffffffffffff\n  mul\n  not\n  and\n  swap1\n  dup4\n  0xffffffffffffffffffffffffffffffffffffffff\n  and\n  mul\n  or\n  swap1\n  sstore\n  pop\n    /* \"contracts/Swap.sol\":950:961  _priceFeedA */\n  dup3\n    /* \"contracts/Swap.sol\":915:925  priceFeedA */\n  0x02\n  0x00\n    /* \"contracts/Swap.sol\":915:962  priceFeedA = AggregatorV3Interface(_priceFeedA) */\n  0x0100\n  exp\n  dup2\n  sload\n  dup2\n  0xffffffffffffffffffffffffffffffffffffffff\n  mul\n  not\n  and\n  swap1\n  dup4\n  0xffffffffffffffffffffffffffffffffffffffff\n  and\n  mul\n  or\n  swap1\n  sstore\n  pop\n    /* \"contracts/Swap.sol\":1008:1019  _priceFeedB */\n  dup2\n    /* \"contracts/Swap.sol\":973:983  priceFeedB */\n  0x03\n  0x00\n    /* \"contracts/Swap.sol\":973:1020  priceFeedB = AggregatorV3Interface(_priceFeedB) */\n  0x0100\n  exp\n  dup2\n  sload\n  dup2\n  0xffffffffffffffffffffffffffffffffffffffff\n  mul\n  not\n  and\n  swap1\n  dup4\n  0xffffffffffffffffffffffffffffffffffffffff\n  and\n  mul\n  or\n  swap1\n  sstore\n  pop\n    /* \"contracts/Swap.sol\":1045:1057  _swapPercent */\n  dup1\n    /* \"contracts/Swap.sol\":1031:1042  swapPercent */\n  0x04\n    /* \"contracts/Swap.sol\":1031:1057  swapPercent = _swapPercent */\n  dup2\n  swap1\n  sstore\n  pop\n    /* \"contracts/Swap.sol\":1087:1097  priceFeedA */\n  0x02\n  0x00\n  swap1\n  sload\n  swap1\n  0x0100\n  exp\n  swap1\n  div\n  0xffffffffffffffffffffffffffffffffffffffff\n  and\n    /* \"contracts/Swap.sol\":1087:1106  priceFeedA.decimals */\n  0xffffffffffffffffffffffffffffffffffffffff\n  and\n  0x313ce567\n    /* \"contracts/Swap.sol\":1087:1108  priceFeedA.decimals() */\n  mload(0x40)\n  dup2\n  0xffffffff\n  and\n  0xe0\n  shl\n  dup2\n  mstore\n  0x04\n  add\n  0x20\n  mload(0x40)\n  dup1\n  dup4\n  sub\n  dup2\n  dup7\n  gas\n  staticcall\n  iszero\n  dup1\n  iszero\n  tag_7\n  jumpi\n  returndatasize\n  0x00\n  dup1\n  returndatacopy\n  revert(0x00, returndatasize)\ntag_7:\n  pop\n  pop\n  pop\n  pop\n  mload(0x40)\n  returndatasize\n  not(0x1f)\n  0x1f\n  dup3\n  add\n  and\n  dup3\n  add\n  dup1\n  0x40\n  mstore\n  pop\n  dup2\n  add\n  swap1\n  tag_8\n  swap2\n  swap1\n  tag_9\n  jump\t// in\ntag_8:\n    /* \"contracts/Swap.sol\":1070:1084  tokenADecimals */\n  0x03\n  0x14\n    /* \"contracts/Swap.sol\":1070:1108  tokenADecimals = priceFeedA.decimals() */\n  0x0100\n  exp\n  dup2\n  sload\n  dup2\n  0xff\n  mul\n  not\n  and\n  swap1\n  dup4\n  0xff\n  and\n  mul\n  or\n  swap1\n  sstore\n  pop\n    /* \"contracts/Swap.sol\":1136:1146  priceFeedB */\n  0x03\n  0x00\n  swap1\n  sload\n  swap1\n  0x0100\n  exp\n  swap1\n  div\n  0xffffffffffffffffffffffffffffffffffffffff\n  and\n    /* \"contracts/Swap.sol\":1136:1155  priceFeedB.decimals */\n  0xffffffffffffffffffffffffffffffffffffffff\n  and\n  0x313ce567\n    /* \"contracts/Swap.sol\":1136:1157  priceFeedB.decimals() */\n  mload(0x40)\n  dup2\n  0xffffffff\n  and\n  0xe0\n  shl\n  dup2\n  mstore\n  0x04\n  add\n  0x20\n  mload(0x40)\n  dup1\n  dup4\n  sub\n  dup2\n  dup7\n  gas\n  staticcall\n  iszero\n  dup1\n  iszero\n  tag_11\n  jumpi\n  returndatasize\n  0x00\n  dup1\n  returndatacopy\n  revert(0x00, returndatasize)\ntag_11:\n  pop\n  pop\n  pop\n  pop\n  mload(0x40)\n  returndatasize\n  not(0x1f)\n  0x1f\n  dup3\n  add\n  and\n  dup3\n  add\n  dup1\n  0x40\n  mstore\n  pop\n  dup2\n  add\n  swap1\n  tag_12\n  swap2\n  swap1\n  tag_9\n  jump\t// in\ntag_12:\n    /* \"contracts/Swap.sol\":1119:1133  tokenBDecimals */\n  0x03\n  0x15\n    /* \"contracts/Swap.sol\":1119:1157  tokenBDecimals = priceFeedB.decimals() */\n  0x0100\n  exp\n  dup2\n  sload\n  dup2\n  0xff\n  mul\n  not\n  and\n  swap1\n  dup4\n  0xff\n  and\n  mul\n  or\n  swap1\n  sstore\n  pop\n    /* \"contracts/Swap.sol\":660:1165  constructor(... */\n  pop\n  pop\n  pop\n  pop\n  pop\n    /* \"contracts/Swap.sol\":153:2424  contract TokenSwap {... */\n  jump(tag_13)\n    /* \"#utility.yul\":88:205   */\ntag_15:\n    /* \"#utility.yul\":197:198   */\n  0x00\n    /* \"#utility.yul\":194:195   */\n  dup1\n    /* \"#utility.yul\":187:199   */\n  revert\n    /* \"#utility.yul\":334:460   */\ntag_17:\n    /* \"#utility.yul\":371:378   */\n  0x00\n    /* \"#utility.yul\":411:453   */\n  0xffffffffffffffffffffffffffffffffffffffff\n    /* \"#utility.yul\":404:409   */\n  dup3\n    /* \"#utility.yul\":400:454   */\n  and\n    /* \"#utility.yul\":389:454   */\n  swap1\n  pop\n    /* \"#utility.yul\":334:460   */\n  swap2\n  swap1\n  pop\n  jump\t// out\n    /* \"#utility.yul\":466:562   */\ntag_18:\n    /* \"#utility.yul\":503:510   */\n  0x00\n    /* \"#utility.yul\":532:556   */\n  tag_33\n    /* \"#utility.yul\":550:555   */\n  dup3\n    /* \"#utility.yul\":532:556   */\n  tag_17\n  jump\t// in\ntag_33:\n    /* \"#utility.yul\":521:556   */\n  swap1\n  pop\n    /* \"#utility.yul\":466:562   */\n  swap2\n  swap1\n  pop\n  jump\t// out\n    /* \"#utility.yul\":568:690   */\ntag_19:\n    /* \"#utility.yul\":641:665   */\n  tag_35\n    /* \"#utility.yul\":659:664   */\n  dup2\n    /* \"#utility.yul\":641:665   */\n  tag_18\n  jump\t// in\ntag_35:\n    /* \"#utility.yul\":634:639   */\n  dup2\n    /* \"#utility.yul\":631:666   */\n  eq\n    /* \"#utility.yul\":621:684   */\n  tag_36\n  jumpi\n    /* \"#utility.yul\":680:681   */\n  0x00\n    /* \"#utility.yul\":677:678   */\n  dup1\n    /* \"#utility.yul\":670:682   */\n  revert\n    /* \"#utility.yul\":621:684   */\ntag_36:\n    /* \"#utility.yul\":568:690   */\n  pop\n  jump\t// out\n    /* \"#utility.yul\":696:839   */\ntag_20:\n    /* \"#utility.yul\":753:758   */\n  0x00\n    /* \"#utility.yul\":784:790   */\n  dup2\n    /* \"#utility.yul\":778:791   */\n  mload\n    /* \"#utility.yul\":769:791   */\n  swap1\n  pop\n    /* \"#utility.yul\":800:833   */\n  tag_38\n    /* \"#utility.yul\":827:832   */\n  dup2\n    /* \"#utility.yul\":800:833   */\n  tag_19\n  jump\t// in\ntag_38:\n    /* \"#utility.yul\":696:839   */\n  swap3\n  swap2\n  pop\n  pop\n  jump\t// out\n    /* \"#utility.yul\":845:922   */\ntag_21:\n    /* \"#utility.yul\":882:889   */\n  0x00\n    /* \"#utility.yul\":911:916   */\n  dup2\n    /* \"#utility.yul\":900:916   */\n  swap1\n  pop\n    /* \"#utility.yul\":845:922   */\n  swap2\n  swap1\n  pop\n  jump\t// out\n    /* \"#utility.yul\":928:1050   */\ntag_22:\n    /* \"#utility.yul\":1001:1025   */\n  tag_41\n    /* \"#utility.yul\":1019:1024   */\n  dup2\n    /* \"#utility.yul\":1001:1025   */\n  tag_21\n  jump\t// in\ntag_41:\n    /* \"#utility.yul\":994:999   */\n  dup2\n    /* \"#utility.yul\":991:1026   */\n  eq\n    /* \"#utility.yul\":981:1044   */\n  tag_42\n  jumpi\n    /* \"#utility.yul\":1040:1041   */\n  0x00\n    /* \"#utility.yul\":1037:1038   */\n  dup1\n    /* \"#utility.yul\":1030:1042   */\n  revert\n    /* \"#utility.yul\":981:1044   */\ntag_42:\n    /* \"#utility.yul\":928:1050   */\n  pop\n  jump\t// out\n    /* \"#utility.yul\":1056:1199   */\ntag_23:\n    /* \"#utility.yul\":1113:1118   */\n  0x00\n    /* \"#utility.yul\":1144:1150   */\n  dup2\n    /* \"#utility.yul\":1138:1151   */\n  mload\n    /* \"#utility.yul\":1129:1151   */\n  swap1\n  pop\n    /* \"#utility.yul\":1160:1193   */\n  tag_44\n    /* \"#utility.yul\":1187:1192   */\n  dup2\n    /* \"#utility.yul\":1160:1193   */\n  tag_22\n  jump\t// in\ntag_44:\n    /* \"#utility.yul\":1056:1199   */\n  swap3\n  swap2\n  pop\n  pop\n  jump\t// out\n    /* \"#utility.yul\":1205:2182   */\ntag_3:\n    /* \"#utility.yul\":1311:1317   */\n  0x00\n    /* \"#utility.yul\":1319:1325   */\n  dup1\n    /* \"#utility.yul\":1327:1333   */\n  0x00\n    /* \"#utility.yul\":1335:1341   */\n  dup1\n    /* \"#utility.yul\":1343:1349   */\n  0x00\n    /* \"#utility.yul\":1392:1395   */\n  0xa0\n    /* \"#utility.yul\":1380:1389   */\n  dup7\n    /* \"#utility.yul\":1371:1378   */\n  dup9\n    /* \"#utility.yul\":1367:1390   */\n  sub\n    /* \"#utility.yul\":1363:1396   */\n  slt\n    /* \"#utility.yul\":1360:1480   */\n  iszero\n  tag_46\n  jumpi\n    /* \"#utility.yul\":1399:1478   */\n  tag_47\n  tag_15\n  jump\t// in\ntag_47:\n    /* \"#utility.yul\":1360:1480   */\ntag_46:\n    /* \"#utility.yul\":1519:1520   */\n  0x00\n    /* \"#utility.yul\":1544:1608   */\n  tag_48\n    /* \"#utility.yul\":1600:1607   */\n  dup9\n    /* \"#utility.yul\":1591:1597   */\n  dup3\n    /* \"#utility.yul\":1580:1589   */\n  dup10\n    /* \"#utility.yul\":1576:1598   */\n  add\n    /* \"#utility.yul\":1544:1608   */\n  tag_20\n  jump\t// in\ntag_48:\n    /* \"#utility.yul\":1534:1608   */\n  swap6\n  pop\n    /* \"#utility.yul\":1490:1618   */\n  pop\n    /* \"#utility.yul\":1657:1659   */\n  0x20\n    /* \"#utility.yul\":1683:1747   */\n  tag_49\n    /* \"#utility.yul\":1739:1746   */\n  dup9\n    /* \"#utility.yul\":1730:1736   */\n  dup3\n    /* \"#utility.yul\":1719:1728   */\n  dup10\n    /* \"#utility.yul\":1715:1737   */\n  add\n    /* \"#utility.yul\":1683:1747   */\n  tag_20\n  jump\t// in\ntag_49:\n    /* \"#utility.yul\":1673:1747   */\n  swap5\n  pop\n    /* \"#utility.yul\":1628:1757   */\n  pop\n    /* \"#utility.yul\":1796:1798   */\n  0x40\n    /* \"#utility.yul\":1822:1886   */\n  tag_50\n    /* \"#utility.yul\":1878:1885   */\n  dup9\n    /* \"#utility.yul\":1869:1875   */\n  dup3\n    /* \"#utility.yul\":1858:1867   */\n  dup10\n    /* \"#utility.yul\":1854:1876   */\n  add\n    /* \"#utility.yul\":1822:1886   */\n  tag_20\n  jump\t// in\ntag_50:\n    /* \"#utility.yul\":1812:1886   */\n  swap4\n  pop\n    /* \"#utility.yul\":1767:1896   */\n  pop\n    /* \"#utility.yul\":1935:1937   */\n  0x60\n    /* \"#utility.yul\":1961:2025   */\n  tag_51\n    /* \"#utility.yul\":2017:2024   */\n  dup9\n    /* \"#utility.yul\":2008:2014   */\n  dup3\n    /* \"#utility.yul\":1997:2006   */\n  dup10\n    /* \"#utility.yul\":1993:2015   */\n  add\n    /* \"#utility.yul\":1961:2025   */\n  tag_20\n  jump\t// in\ntag_51:\n    /* \"#utility.yul\":1951:2025   */\n  swap3\n  pop\n    /* \"#utility.yul\":1906:2035   */\n  pop\n    /* \"#utility.yul\":2074:2077   */\n  0x80\n    /* \"#utility.yul\":2101:2165   */\n  tag_52\n    /* \"#utility.yul\":2157:2164   */\n  dup9\n    /* \"#utility.yul\":2148:2154   */\n  dup3\n    /* \"#utility.yul\":2137:2146   */\n  dup10\n    /* \"#utility.yul\":2133:2155   */\n  add\n    /* \"#utility.yul\":2101:2165   */\n  tag_23\n  jump\t// in\ntag_52:\n    /* \"#utility.yul\":2091:2165   */\n  swap2\n  pop\n    /* \"#utility.yul\":2045:2175   */\n  pop\n    /* \"#utility.yul\":1205:2182   */\n  swap3\n  swap6\n  pop\n  swap3\n  swap6\n  swap1\n  swap4\n  pop\n  jump\t// out\n    /* \"#utility.yul\":2188:2274   */\ntag_24:\n    /* \"#utility.yul\":2223:2230   */\n  0x00\n    /* \"#utility.yul\":2263:2267   */\n  0xff\n    /* \"#utility.yul\":2256:2261   */\n  dup3\n    /* \"#utility.yul\":2252:2268   */\n  and\n    /* \"#utility.yul\":2241:2268   */\n  swap1\n  pop\n    /* \"#utility.yul\":2188:2274   */\n  swap2\n  swap1\n  pop\n  jump\t// out\n    /* \"#utility.yul\":2280:2398   */\ntag_25:\n    /* \"#utility.yul\":2351:2373   */\n  tag_55\n    /* \"#utility.yul\":2367:2372   */\n  dup2\n    /* \"#utility.yul\":2351:2373   */\n  tag_24\n  jump\t// in\ntag_55:\n    /* \"#utility.yul\":2344:2349   */\n  dup2\n    /* \"#utility.yul\":2341:2374   */\n  eq\n    /* \"#utility.yul\":2331:2392   */\n  tag_56\n  jumpi\n    /* \"#utility.yul\":2388:2389   */\n  0x00\n    /* \"#utility.yul\":2385:2386   */\n  dup1\n    /* \"#utility.yul\":2378:2390   */\n  revert\n    /* \"#utility.yul\":2331:2392   */\ntag_56:\n    /* \"#utility.yul\":2280:2398   */\n  pop\n  jump\t// out\n    /* \"#utility.yul\":2404:2543   */\ntag_26:\n    /* \"#utility.yul\":2459:2464   */\n  0x00\n    /* \"#utility.yul\":2490:2496   */\n  dup2\n    /* \"#utility.yul\":2484:2497   */\n  mload\n    /* \"#utility.yul\":2475:2497   */\n  swap1\n  pop\n    /* \"#utility.yul\":2506:2537   */\n  tag_58\n    /* \"#utility.yul\":2531:2536   */\n  dup2\n    /* \"#utility.yul\":2506:2537   */\n  tag_25\n  jump\t// in\ntag_58:\n    /* \"#utility.yul\":2404:2543   */\n  swap3\n  swap2\n  pop\n  pop\n  jump\t// out\n    /* \"#utility.yul\":2549:2896   */\ntag_9:\n    /* \"#utility.yul\":2617:2623   */\n  0x00\n    /* \"#utility.yul\":2666:2668   */\n  0x20\n    /* \"#utility.yul\":2654:2663   */\n  dup3\n    /* \"#utility.yul\":2645:2652   */\n  dup5\n    /* \"#utility.yul\":2641:2664   */\n  sub\n    /* \"#utility.yul\":2637:2669   */\n  slt\n    /* \"#utility.yul\":2634:2753   */\n  iszero\n  tag_60\n  jumpi\n    /* \"#utility.yul\":2672:2751   */\n  tag_61\n  tag_15\n  jump\t// in\ntag_61:\n    /* \"#utility.yul\":2634:2753   */\ntag_60:\n    /* \"#utility.yul\":2792:2793   */\n  0x00\n    /* \"#utility.yul\":2817:2879   */\n  tag_62\n    /* \"#utility.yul\":2871:2878   */\n  dup5\n    /* \"#utility.yul\":2862:2868   */\n  dup3\n    /* \"#utility.yul\":2851:2860   */\n  dup6\n    /* \"#utility.yul\":2847:2869   */\n  add\n    /* \"#utility.yul\":2817:2879   */\n  tag_26\n  jump\t// in\ntag_62:\n    /* \"#utility.yul\":2807:2879   */\n  swap2\n  pop\n    /* \"#utility.yul\":2763:2889   */\n  pop\n    /* \"#utility.yul\":2549:2896   */\n  swap3\n  swap2\n  pop\n  pop\n  jump\t// out\n    /* \"contracts/Swap.sol\":153:2424  contract TokenSwap {... */\ntag_13:\n  dataSize(sub_0)\n  dup1\n  dataOffset(sub_0)\n  0x00\n  codecopy\n  0x00\n  return\nstop\n\nsub_0: assembly {\n        /* \"contracts/Swap.sol\":153:2424  contract TokenSwap {... */\n      mstore(0x40, 0x80)\n      callvalue\n      dup1\n      iszero\n      tag_1\n      jumpi\n      0x00\n      dup1\n      revert\n    tag_1:\n      pop\n      jumpi(tag_2, lt(calldatasize, 0x04))\n      shr(0xe0, calldataload(0x00))\n      dup1\n      0x0fc63d10\n      eq\n      tag_3\n      jumpi\n      dup1\n      0x485391a0\n      eq\n      tag_4\n      jumpi\n      dup1\n      0x4ac1126a\n      eq\n      tag_5\n      jumpi\n      dup1\n      0x5f64b55b\n      eq\n      tag_6\n      jumpi\n      dup1\n      0x94b918de\n      eq\n      tag_7\n      jumpi\n      dup1\n      0xb5f4abf9\n      eq\n      tag_8\n      jumpi\n    tag_2:\n      0x00\n      dup1\n      revert\n        /* \"contracts/Swap.sol\":179:205  ICustomERC20 public tokenA */\n    tag_3:\n      tag_9\n      tag_10\n      jump\t// in\n    tag_9:\n      mload(0x40)\n      tag_11\n      swap2\n      swap1\n      tag_12\n      jump\t// in\n    tag_11:\n      mload(0x40)\n      dup1\n      swap2\n      sub\n      swap1\n      return\n        /* \"contracts/Swap.sol\":469:496  uint8 public tokenBDecimals */\n    tag_4:\n      tag_13\n      tag_14\n      jump\t// in\n    tag_13:\n      mload(0x40)\n      tag_15\n      swap2\n      swap1\n      tag_16\n      jump\t// in\n    tag_15:\n      mload(0x40)\n      dup1\n      swap2\n      sub\n      swap1\n      return\n        /* \"contracts/Swap.sol\":505:531  uint256 public swapPercent */\n    tag_5:\n      tag_17\n      tag_18\n      jump\t// in\n    tag_17:\n      mload(0x40)\n      tag_19\n      swap2\n      swap1\n      tag_20\n      jump\t// in\n    tag_19:\n      mload(0x40)\n      dup1\n      swap2\n      sub\n      swap1\n      return\n        /* \"contracts/Swap.sol\":212:238  ICustomERC20 public tokenB */\n    tag_6:\n      tag_21\n      tag_22\n      jump\t// in\n    tag_21:\n      mload(0x40)\n      tag_23\n      swap2\n      swap1\n      tag_12\n      jump\t// in\n    tag_23:\n      mload(0x40)\n      dup1\n      swap2\n      sub\n      swap1\n      return\n        /* \"contracts/Swap.sol\":1216:2028  function swap(uint256 amountA) external {... */\n    tag_7:\n      tag_24\n      0x04\n      dup1\n      calldatasize\n      sub\n      dup2\n      add\n      swap1\n      tag_25\n      swap2\n      swap1\n      tag_26\n      jump\t// in\n    tag_25:\n      tag_27\n      jump\t// in\n    tag_24:\n      stop\n        /* \"contracts/Swap.sol\":435:462  uint8 public tokenADecimals */\n    tag_8:\n      tag_28\n      tag_29\n      jump\t// in\n    tag_28:\n      mload(0x40)\n      tag_30\n      swap2\n      swap1\n      tag_16\n      jump\t// in\n    tag_30:\n      mload(0x40)\n      dup1\n      swap2\n      sub\n      swap1\n      return\n        /* \"contracts/Swap.sol\":179:205  ICustomERC20 public tokenA */\n    tag_10:\n      0x00\n      dup1\n      sload\n      swap1\n      0x0100\n      exp\n      swap1\n      div\n      0xffffffffffffffffffffffffffffffffffffffff\n      and\n      dup2\n      jump\t// out\n        /* \"contracts/Swap.sol\":469:496  uint8 public tokenBDecimals */\n    tag_14:\n      0x03\n      0x15\n      swap1\n      sload\n      swap1\n      0x0100\n      exp\n      swap1\n      div\n      0xff\n      and\n      dup2\n      jump\t// out\n        /* \"contracts/Swap.sol\":505:531  uint256 public swapPercent */\n    tag_18:\n      sload(0x04)\n      dup2\n      jump\t// out\n        /* \"contracts/Swap.sol\":212:238  ICustomERC20 public tokenB */\n    tag_22:\n      0x01\n      0x00\n      swap1\n      sload\n      swap1\n      0x0100\n      exp\n      swap1\n      div\n      0xffffffffffffffffffffffffffffffffffffffff\n      and\n      dup2\n      jump\t// out\n        /* \"contracts/Swap.sol\":1216:2028  function swap(uint256 amountA) external {... */\n    tag_27:\n        /* \"contracts/Swap.sol\":1285:1286  0 */\n      0x00\n        /* \"contracts/Swap.sol\":1275:1282  amountA */\n      dup2\n        /* \"contracts/Swap.sol\":1275:1286  amountA > 0 */\n      gt\n        /* \"contracts/Swap.sol\":1267:1323  require(amountA > 0, \"Amount must be greater than zero\") */\n      tag_32\n      jumpi\n      mload(0x40)\n      0x08c379a000000000000000000000000000000000000000000000000000000000\n      dup2\n      mstore\n      0x04\n      add\n      tag_33\n      swap1\n      tag_34\n      jump\t// in\n    tag_33:\n      mload(0x40)\n      dup1\n      swap2\n      sub\n      swap1\n      revert\n    tag_32:\n        /* \"contracts/Swap.sol\":1407:1421  uint256 priceA */\n      0x00\n        /* \"contracts/Swap.sol\":1427:1454  _getLatestPrice(priceFeedA) */\n      tag_35\n        /* \"contracts/Swap.sol\":1443:1453  priceFeedA */\n      0x02\n      0x00\n      swap1\n      sload\n      swap1\n      0x0100\n      exp\n      swap1\n      div\n      0xffffffffffffffffffffffffffffffffffffffff\n      and\n        /* \"contracts/Swap.sol\":1427:1442  _getLatestPrice */\n      tag_36\n        /* \"contracts/Swap.sol\":1427:1454  _getLatestPrice(priceFeedA) */\n      jump\t// in\n    tag_35:\n        /* \"contracts/Swap.sol\":1406:1454  (uint256 priceA, ) = _getLatestPrice(priceFeedA) */\n      pop\n      swap1\n      pop\n        /* \"contracts/Swap.sol\":1466:1480  uint256 priceB */\n      0x00\n        /* \"contracts/Swap.sol\":1486:1513  _getLatestPrice(priceFeedB) */\n      tag_37\n        /* \"contracts/Swap.sol\":1502:1512  priceFeedB */\n      0x03\n      0x00\n      swap1\n      sload\n      swap1\n      0x0100\n      exp\n      swap1\n      div\n      0xffffffffffffffffffffffffffffffffffffffff\n      and\n        /* \"contracts/Swap.sol\":1486:1501  _getLatestPrice */\n      tag_36\n        /* \"contracts/Swap.sol\":1486:1513  _getLatestPrice(priceFeedB) */\n      jump\t// in\n    tag_37:\n        /* \"contracts/Swap.sol\":1465:1513  (uint256 priceB, ) = _getLatestPrice(priceFeedB) */\n      pop\n      swap1\n      pop\n        /* \"contracts/Swap.sol\":1577:1592  uint256 amountB */\n      0x00\n        /* \"contracts/Swap.sol\":1648:1651  100 */\n      0x64\n        /* \"contracts/Swap.sol\":1639:1645  priceB */\n      dup3\n        /* \"contracts/Swap.sol\":1639:1651  priceB * 100 */\n      tag_38\n      swap2\n      swap1\n      tag_39\n      jump\t// in\n    tag_38:\n        /* \"contracts/Swap.sol\":1622:1633  swapPercent */\n      sload(0x04)\n        /* \"contracts/Swap.sol\":1616:1619  100 */\n      0x64\n        /* \"contracts/Swap.sol\":1616:1633  100 + swapPercent */\n      tag_40\n      swap2\n      swap1\n      tag_41\n      jump\t// in\n    tag_40:\n        /* \"contracts/Swap.sol\":1606:1612  priceA */\n      dup5\n        /* \"contracts/Swap.sol\":1596:1603  amountA */\n      dup7\n        /* \"contracts/Swap.sol\":1596:1612  amountA * priceA */\n      tag_42\n      swap2\n      swap1\n      tag_39\n      jump\t// in\n    tag_42:\n        /* \"contracts/Swap.sol\":1596:1634  amountA * priceA * (100 + swapPercent) */\n      tag_43\n      swap2\n      swap1\n      tag_39\n      jump\t// in\n    tag_43:\n        /* \"contracts/Swap.sol\":1595:1652  (amountA * priceA * (100 + swapPercent)) / (priceB * 100) */\n      tag_44\n      swap2\n      swap1\n      tag_45\n      jump\t// in\n    tag_44:\n        /* \"contracts/Swap.sol\":1577:1652  uint256 amountB = (amountA * priceA * (100 + swapPercent)) / (priceB * 100) */\n      swap1\n      pop\n        /* \"contracts/Swap.sol\":1724:1730  tokenA */\n      0x00\n      dup1\n      sload\n      swap1\n      0x0100\n      exp\n      swap1\n      div\n      0xffffffffffffffffffffffffffffffffffffffff\n      and\n        /* \"contracts/Swap.sol\":1724:1743  tokenA.transferFrom */\n      0xffffffffffffffffffffffffffffffffffffffff\n      and\n      0x23b872dd\n        /* \"contracts/Swap.sol\":1744:1754  msg.sender */\n      caller\n        /* \"contracts/Swap.sol\":1764:1768  this */\n      address\n        /* \"contracts/Swap.sol\":1771:1778  amountA */\n      dup8\n        /* \"contracts/Swap.sol\":1724:1779  tokenA.transferFrom(msg.sender, address(this), amountA) */\n      mload(0x40)\n      dup5\n      0xffffffff\n      and\n      0xe0\n      shl\n      dup2\n      mstore\n      0x04\n      add\n      tag_46\n      swap4\n      swap3\n      swap2\n      swap1\n      tag_47\n      jump\t// in\n    tag_46:\n      0x20\n      mload(0x40)\n      dup1\n      dup4\n      sub\n      dup2\n      0x00\n      dup8\n      gas\n      call\n      iszero\n      dup1\n      iszero\n      tag_49\n      jumpi\n      returndatasize\n      0x00\n      dup1\n      returndatacopy\n      revert(0x00, returndatasize)\n    tag_49:\n      pop\n      pop\n      pop\n      pop\n      mload(0x40)\n      returndatasize\n      not(0x1f)\n      0x1f\n      dup3\n      add\n      and\n      dup3\n      add\n      dup1\n      0x40\n      mstore\n      pop\n      dup2\n      add\n      swap1\n      tag_50\n      swap2\n      swap1\n      tag_51\n      jump\t// in\n    tag_50:\n      pop\n        /* \"contracts/Swap.sol\":1835:1841  tokenA */\n      0x00\n      dup1\n      sload\n      swap1\n      0x0100\n      exp\n      swap1\n      div\n      0xffffffffffffffffffffffffffffffffffffffff\n      and\n        /* \"contracts/Swap.sol\":1835:1846  tokenA.burn */\n      0xffffffffffffffffffffffffffffffffffffffff\n      and\n      0x42966c68\n        /* \"contracts/Swap.sol\":1847:1854  amountA */\n      dup6\n        /* \"contracts/Swap.sol\":1835:1855  tokenA.burn(amountA) */\n      mload(0x40)\n      dup3\n      0xffffffff\n      and\n      0xe0\n      shl\n      dup2\n      mstore\n      0x04\n      add\n      tag_52\n      swap2\n      swap1\n      tag_20\n      jump\t// in\n    tag_52:\n      0x00\n      mload(0x40)\n      dup1\n      dup4\n      sub\n      dup2\n      0x00\n      dup8\n      dup1\n      extcodesize\n      iszero\n      dup1\n      iszero\n      tag_53\n      jumpi\n      0x00\n      dup1\n      revert\n    tag_53:\n      pop\n      gas\n      call\n      iszero\n      dup1\n      iszero\n      tag_55\n      jumpi\n      returndatasize\n      0x00\n      dup1\n      returndatacopy\n      revert(0x00, returndatasize)\n    tag_55:\n      pop\n      pop\n      pop\n      pop\n        /* \"contracts/Swap.sol\":1904:1910  tokenB */\n      0x01\n      0x00\n      swap1\n      sload\n      swap1\n      0x0100\n      exp\n      swap1\n      div\n      0xffffffffffffffffffffffffffffffffffffffff\n      and\n        /* \"contracts/Swap.sol\":1904:1915  tokenB.mint */\n      0xffffffffffffffffffffffffffffffffffffffff\n      and\n      0x40c10f19\n        /* \"contracts/Swap.sol\":1916:1926  msg.sender */\n      caller\n        /* \"contracts/Swap.sol\":1928:1935  amountB */\n      dup4\n        /* \"contracts/Swap.sol\":1904:1936  tokenB.mint(msg.sender, amountB) */\n      mload(0x40)\n      dup4\n      0xffffffff\n      and\n      0xe0\n      shl\n      dup2\n      mstore\n      0x04\n      add\n      tag_56\n      swap3\n      swap2\n      swap1\n      tag_57\n      jump\t// in\n    tag_56:\n      0x00\n      mload(0x40)\n      dup1\n      dup4\n      sub\n      dup2\n      0x00\n      dup8\n      dup1\n      extcodesize\n      iszero\n      dup1\n      iszero\n      tag_58\n      jumpi\n      0x00\n      dup1\n      revert\n    tag_58:\n      pop\n      gas\n      call\n      iszero\n      dup1\n      iszero\n      tag_60\n      jumpi\n      returndatasize\n      0x00\n      dup1\n      returndatacopy\n      revert(0x00, returndatasize)\n    tag_60:\n      pop\n      pop\n      pop\n      pop\n        /* \"contracts/Swap.sol\":1991:2001  msg.sender */\n      caller\n        /* \"contracts/Swap.sol\":1986:2020  Swap(msg.sender, amountA, amountB) */\n      0xffffffffffffffffffffffffffffffffffffffff\n      and\n      0x77f92a1b6a1a11de8ca49515ad4c1fad45632dd3442167d74b90b304a3c7a758\n        /* \"contracts/Swap.sol\":2003:2010  amountA */\n      dup6\n        /* \"contracts/Swap.sol\":2012:2019  amountB */\n      dup4\n        /* \"contracts/Swap.sol\":1986:2020  Swap(msg.sender, amountA, amountB) */\n      mload(0x40)\n      tag_61\n      swap3\n      swap2\n      swap1\n      tag_62\n      jump\t// in\n    tag_61:\n      mload(0x40)\n      dup1\n      swap2\n      sub\n      swap1\n      log2\n        /* \"contracts/Swap.sol\":1256:2028  {... */\n      pop\n      pop\n      pop\n        /* \"contracts/Swap.sol\":1216:2028  function swap(uint256 amountA) external {... */\n      pop\n      jump\t// out\n        /* \"contracts/Swap.sol\":435:462  uint8 public tokenADecimals */\n    tag_29:\n      0x03\n      0x14\n      swap1\n      sload\n      swap1\n      0x0100\n      exp\n      swap1\n      div\n      0xff\n      and\n      dup2\n      jump\t// out\n        /* \"contracts/Swap.sol\":2101:2421  function _getLatestPrice(AggregatorV3Interface _priceFeed) internal view returns (uint256, uint256) {... */\n    tag_36:\n        /* \"contracts/Swap.sol\":2183:2190  uint256 */\n      0x00\n        /* \"contracts/Swap.sol\":2192:2199  uint256 */\n      dup1\n        /* \"contracts/Swap.sol\":2215:2227  int256 price */\n      0x00\n        /* \"contracts/Swap.sol\":2237:2247  _priceFeed */\n      dup4\n        /* \"contracts/Swap.sol\":2237:2263  _priceFeed.latestRoundData */\n      0xffffffffffffffffffffffffffffffffffffffff\n      and\n      0xfeaf968c\n        /* \"contracts/Swap.sol\":2237:2265  _priceFeed.latestRoundData() */\n      mload(0x40)\n      dup2\n      0xffffffff\n      and\n      0xe0\n      shl\n      dup2\n      mstore\n      0x04\n      add\n      0xa0\n      mload(0x40)\n      dup1\n      dup4\n      sub\n      dup2\n      dup7\n      gas\n      staticcall\n      iszero\n      dup1\n      iszero\n      tag_65\n      jumpi\n      returndatasize\n      0x00\n      dup1\n      returndatacopy\n      revert(0x00, returndatasize)\n    tag_65:\n      pop\n      pop\n      pop\n      pop\n      mload(0x40)\n      returndatasize\n      not(0x1f)\n      0x1f\n      dup3\n      add\n      and\n      dup3\n      add\n      dup1\n      0x40\n      mstore\n      pop\n      dup2\n      add\n      swap1\n      tag_66\n      swap2\n      swap1\n      tag_67\n      jump\t// in\n    tag_66:\n        /* \"contracts/Swap.sol\":2212:2265  (, int256 price, , , ) = _priceFeed.latestRoundData() */\n      pop\n      pop\n      pop\n      swap2\n      pop\n      pop\n        /* \"contracts/Swap.sol\":2292:2293  0 */\n      0x00\n        /* \"contracts/Swap.sol\":2284:2289  price */\n      dup2\n        /* \"contracts/Swap.sol\":2284:2293  price > 0 */\n      sgt\n        /* \"contracts/Swap.sol\":2276:2311  require(price > 0, \"Invalid price\") */\n      tag_68\n      jumpi\n      mload(0x40)\n      0x08c379a000000000000000000000000000000000000000000000000000000000\n      dup2\n      mstore\n      0x04\n      add\n      tag_69\n      swap1\n      tag_70\n      jump\t// in\n    tag_69:\n      mload(0x40)\n      dup1\n      swap2\n      sub\n      swap1\n      revert\n    tag_68:\n        /* \"contracts/Swap.sol\":2322:2336  uint8 decimals */\n      0x00\n        /* \"contracts/Swap.sol\":2339:2349  _priceFeed */\n      dup5\n        /* \"contracts/Swap.sol\":2339:2358  _priceFeed.decimals */\n      0xffffffffffffffffffffffffffffffffffffffff\n      and\n      0x313ce567\n        /* \"contracts/Swap.sol\":2339:2360  _priceFeed.decimals() */\n      mload(0x40)\n      dup2\n      0xffffffff\n      and\n      0xe0\n      shl\n      dup2\n      mstore\n      0x04\n      add\n      0x20\n      mload(0x40)\n      dup1\n      dup4\n      sub\n      dup2\n      dup7\n      gas\n      staticcall\n      iszero\n      dup1\n      iszero\n      tag_72\n      jumpi\n      returndatasize\n      0x00\n      dup1\n      returndatacopy\n      revert(0x00, returndatasize)\n    tag_72:\n      pop\n      pop\n      pop\n      pop\n      mload(0x40)\n      returndatasize\n      not(0x1f)\n      0x1f\n      dup3\n      add\n      and\n      dup3\n      add\n      dup1\n      0x40\n      mstore\n      pop\n      dup2\n      add\n      swap1\n      tag_73\n      swap2\n      swap1\n      tag_74\n      jump\t// in\n    tag_73:\n        /* \"contracts/Swap.sol\":2322:2360  uint8 decimals = _priceFeed.decimals() */\n      swap1\n      pop\n        /* \"contracts/Swap.sol\":2387:2392  price */\n      dup2\n        /* \"contracts/Swap.sol\":2403:2411  decimals */\n      dup2\n        /* \"contracts/Swap.sol\":2395:2412  uint256(decimals) */\n      0xff\n      and\n        /* \"contracts/Swap.sol\":2371:2413  return (uint256(price), uint256(decimals)) */\n      swap4\n      pop\n      swap4\n      pop\n      pop\n      pop\n        /* \"contracts/Swap.sol\":2101:2421  function _getLatestPrice(AggregatorV3Interface _priceFeed) internal view returns (uint256, uint256) {... */\n      swap2\n      pop\n      swap2\n      jump\t// out\n        /* \"#utility.yul\":7:133   */\n    tag_75:\n        /* \"#utility.yul\":44:51   */\n      0x00\n        /* \"#utility.yul\":84:126   */\n      0xffffffffffffffffffffffffffffffffffffffff\n        /* \"#utility.yul\":77:82   */\n      dup3\n        /* \"#utility.yul\":73:127   */\n      and\n        /* \"#utility.yul\":62:127   */\n      swap1\n      pop\n        /* \"#utility.yul\":7:133   */\n      swap2\n      swap1\n      pop\n      jump\t// out\n        /* \"#utility.yul\":139:199   */\n    tag_76:\n        /* \"#utility.yul\":167:170   */\n      0x00\n        /* \"#utility.yul\":188:193   */\n      dup2\n        /* \"#utility.yul\":181:193   */\n      swap1\n      pop\n        /* \"#utility.yul\":139:199   */\n      swap2\n      swap1\n      pop\n      jump\t// out\n        /* \"#utility.yul\":205:347   */\n    tag_77:\n        /* \"#utility.yul\":255:264   */\n      0x00\n        /* \"#utility.yul\":288:341   */\n      tag_115\n        /* \"#utility.yul\":306:340   */\n      tag_116\n        /* \"#utility.yul\":315:339   */\n      tag_117\n        /* \"#utility.yul\":333:338   */\n      dup5\n        /* \"#utility.yul\":315:339   */\n      tag_75\n      jump\t// in\n    tag_117:\n        /* \"#utility.yul\":306:340   */\n      tag_76\n      jump\t// in\n    tag_116:\n        /* \"#utility.yul\":288:341   */\n      tag_75\n      jump\t// in\n    tag_115:\n        /* \"#utility.yul\":275:341   */\n      swap1\n      pop\n        /* \"#utility.yul\":205:347   */\n      swap2\n      swap1\n      pop\n      jump\t// out\n        /* \"#utility.yul\":353:479   */\n    tag_78:\n        /* \"#utility.yul\":403:412   */\n      0x00\n        /* \"#utility.yul\":436:473   */\n      tag_119\n        /* \"#utility.yul\":467:472   */\n      dup3\n        /* \"#utility.yul\":436:473   */\n      tag_77\n      jump\t// in\n    tag_119:\n        /* \"#utility.yul\":423:473   */\n      swap1\n      pop\n        /* \"#utility.yul\":353:479   */\n      swap2\n      swap1\n      pop\n      jump\t// out\n        /* \"#utility.yul\":485:631   */\n    tag_79:\n        /* \"#utility.yul\":555:564   */\n      0x00\n        /* \"#utility.yul\":588:625   */\n      tag_121\n        /* \"#utility.yul\":619:624   */\n      dup3\n        /* \"#utility.yul\":588:625   */\n      tag_78\n      jump\t// in\n    tag_121:\n        /* \"#utility.yul\":575:625   */\n      swap1\n      pop\n        /* \"#utility.yul\":485:631   */\n      swap2\n      swap1\n      pop\n      jump\t// out\n        /* \"#utility.yul\":637:808   */\n    tag_80:\n        /* \"#utility.yul\":744:801   */\n      tag_123\n        /* \"#utility.yul\":795:800   */\n      dup2\n        /* \"#utility.yul\":744:801   */\n      tag_79\n      jump\t// in\n    tag_123:\n        /* \"#utility.yul\":739:742   */\n      dup3\n        /* \"#utility.yul\":732:802   */\n      mstore\n        /* \"#utility.yul\":637:808   */\n      pop\n      pop\n      jump\t// out\n        /* \"#utility.yul\":814:1076   */\n    tag_12:\n        /* \"#utility.yul\":927:931   */\n      0x00\n        /* \"#utility.yul\":965:967   */\n      0x20\n        /* \"#utility.yul\":954:963   */\n      dup3\n        /* \"#utility.yul\":950:968   */\n      add\n        /* \"#utility.yul\":942:968   */\n      swap1\n      pop\n        /* \"#utility.yul\":978:1069   */\n      tag_125\n        /* \"#utility.yul\":1066:1067   */\n      0x00\n        /* \"#utility.yul\":1055:1064   */\n      dup4\n        /* \"#utility.yul\":1051:1068   */\n      add\n        /* \"#utility.yul\":1042:1048   */\n      dup5\n        /* \"#utility.yul\":978:1069   */\n      tag_80\n      jump\t// in\n    tag_125:\n        /* \"#utility.yul\":814:1076   */\n      swap3\n      swap2\n      pop\n      pop\n      jump\t// out\n        /* \"#utility.yul\":1082:1168   */\n    tag_81:\n        /* \"#utility.yul\":1117:1124   */\n      0x00\n        /* \"#utility.yul\":1157:1161   */\n      0xff\n        /* \"#utility.yul\":1150:1155   */\n      dup3\n        /* \"#utility.yul\":1146:1162   */\n      and\n        /* \"#utility.yul\":1135:1162   */\n      swap1\n      pop\n        /* \"#utility.yul\":1082:1168   */\n      swap2\n      swap1\n      pop\n      jump\t// out\n        /* \"#utility.yul\":1174:1286   */\n    tag_82:\n        /* \"#utility.yul\":1257:1279   */\n      tag_128\n        /* \"#utility.yul\":1273:1278   */\n      dup2\n        /* \"#utility.yul\":1257:1279   */\n      tag_81\n      jump\t// in\n    tag_128:\n        /* \"#utility.yul\":1252:1255   */\n      dup3\n        /* \"#utility.yul\":1245:1280   */\n      mstore\n        /* \"#utility.yul\":1174:1286   */\n      pop\n      pop\n      jump\t// out\n        /* \"#utility.yul\":1292:1506   */\n    tag_16:\n        /* \"#utility.yul\":1381:1385   */\n      0x00\n        /* \"#utility.yul\":1419:1421   */\n      0x20\n        /* \"#utility.yul\":1408:1417   */\n      dup3\n        /* \"#utility.yul\":1404:1422   */\n      add\n        /* \"#utility.yul\":1396:1422   */\n      swap1\n      pop\n        /* \"#utility.yul\":1432:1499   */\n      tag_130\n        /* \"#utility.yul\":1496:1497   */\n      0x00\n        /* \"#utility.yul\":1485:1494   */\n      dup4\n        /* \"#utility.yul\":1481:1498   */\n      add\n        /* \"#utility.yul\":1472:1478   */\n      dup5\n        /* \"#utility.yul\":1432:1499   */\n      tag_82\n      jump\t// in\n    tag_130:\n        /* \"#utility.yul\":1292:1506   */\n      swap3\n      swap2\n      pop\n      pop\n      jump\t// out\n        /* \"#utility.yul\":1512:1589   */\n    tag_83:\n        /* \"#utility.yul\":1549:1556   */\n      0x00\n        /* \"#utility.yul\":1578:1583   */\n      dup2\n        /* \"#utility.yul\":1567:1583   */\n      swap1\n      pop\n        /* \"#utility.yul\":1512:1589   */\n      swap2\n      swap1\n      pop\n      jump\t// out\n        /* \"#utility.yul\":1595:1713   */\n    tag_84:\n        /* \"#utility.yul\":1682:1706   */\n      tag_133\n        /* \"#utility.yul\":1700:1705   */\n      dup2\n        /* \"#utility.yul\":1682:1706   */\n      tag_83\n      jump\t// in\n    tag_133:\n        /* \"#utility.yul\":1677:1680   */\n      dup3\n        /* \"#utility.yul\":1670:1707   */\n      mstore\n        /* \"#utility.yul\":1595:1713   */\n      pop\n      pop\n      jump\t// out\n        /* \"#utility.yul\":1719:1941   */\n    tag_20:\n        /* \"#utility.yul\":1812:1816   */\n      0x00\n        /* \"#utility.yul\":1850:1852   */\n      0x20\n        /* \"#utility.yul\":1839:1848   */\n      dup3\n        /* \"#utility.yul\":1835:1853   */\n      add\n        /* \"#utility.yul\":1827:1853   */\n      swap1\n      pop\n        /* \"#utility.yul\":1863:1934   */\n      tag_135\n        /* \"#utility.yul\":1931:1932   */\n      0x00\n        /* \"#utility.yul\":1920:1929   */\n      dup4\n        /* \"#utility.yul\":1916:1933   */\n      add\n        /* \"#utility.yul\":1907:1913   */\n      dup5\n        /* \"#utility.yul\":1863:1934   */\n      tag_84\n      jump\t// in\n    tag_135:\n        /* \"#utility.yul\":1719:1941   */\n      swap3\n      swap2\n      pop\n      pop\n      jump\t// out\n        /* \"#utility.yul\":2028:2145   */\n    tag_86:\n        /* \"#utility.yul\":2137:2138   */\n      0x00\n        /* \"#utility.yul\":2134:2135   */\n      dup1\n        /* \"#utility.yul\":2127:2139   */\n      revert\n        /* \"#utility.yul\":2274:2396   */\n    tag_88:\n        /* \"#utility.yul\":2347:2371   */\n      tag_140\n        /* \"#utility.yul\":2365:2370   */\n      dup2\n        /* \"#utility.yul\":2347:2371   */\n      tag_83\n      jump\t// in\n    tag_140:\n        /* \"#utility.yul\":2340:2345   */\n      dup2\n        /* \"#utility.yul\":2337:2372   */\n      eq\n        /* \"#utility.yul\":2327:2390   */\n      tag_141\n      jumpi\n        /* \"#utility.yul\":2386:2387   */\n      0x00\n        /* \"#utility.yul\":2383:2384   */\n      dup1\n        /* \"#utility.yul\":2376:2388   */\n      revert\n        /* \"#utility.yul\":2327:2390   */\n    tag_141:\n        /* \"#utility.yul\":2274:2396   */\n      pop\n      jump\t// out\n        /* \"#utility.yul\":2402:2541   */\n    tag_89:\n        /* \"#utility.yul\":2448:2453   */\n      0x00\n        /* \"#utility.yul\":2486:2492   */\n      dup2\n        /* \"#utility.yul\":2473:2493   */\n      calldataload\n        /* \"#utility.yul\":2464:2493   */\n      swap1\n      pop\n        /* \"#utility.yul\":2502:2535   */\n      tag_143\n        /* \"#utility.yul\":2529:2534   */\n      dup2\n        /* \"#utility.yul\":2502:2535   */\n      tag_88\n      jump\t// in\n    tag_143:\n        /* \"#utility.yul\":2402:2541   */\n      swap3\n      swap2\n      pop\n      pop\n      jump\t// out\n        /* \"#utility.yul\":2547:2876   */\n    tag_26:\n        /* \"#utility.yul\":2606:2612   */\n      0x00\n        /* \"#utility.yul\":2655:2657   */\n      0x20\n        /* \"#utility.yul\":2643:2652   */\n      dup3\n        /* \"#utility.yul\":2634:2641   */\n      dup5\n        /* \"#utility.yul\":2630:2653   */\n      sub\n        /* \"#utility.yul\":2626:2658   */\n      slt\n        /* \"#utility.yul\":2623:2742   */\n      iszero\n      tag_145\n      jumpi\n        /* \"#utility.yul\":2661:2740   */\n      tag_146\n      tag_86\n      jump\t// in\n    tag_146:\n        /* \"#utility.yul\":2623:2742   */\n    tag_145:\n        /* \"#utility.yul\":2781:2782   */\n      0x00\n        /* \"#utility.yul\":2806:2859   */\n      tag_147\n        /* \"#utility.yul\":2851:2858   */\n      dup5\n        /* \"#utility.yul\":2842:2848   */\n      dup3\n        /* \"#utility.yul\":2831:2840   */\n      dup6\n        /* \"#utility.yul\":2827:2849   */\n      add\n        /* \"#utility.yul\":2806:2859   */\n      tag_89\n      jump\t// in\n    tag_147:\n        /* \"#utility.yul\":2796:2859   */\n      swap2\n      pop\n        /* \"#utility.yul\":2752:2869   */\n      pop\n        /* \"#utility.yul\":2547:2876   */\n      swap3\n      swap2\n      pop\n      pop\n      jump\t// out\n        /* \"#utility.yul\":2882:3051   */\n    tag_90:\n        /* \"#utility.yul\":2966:2977   */\n      0x00\n        /* \"#utility.yul\":3000:3006   */\n      dup3\n        /* \"#utility.yul\":2995:2998   */\n      dup3\n        /* \"#utility.yul\":2988:3007   */\n      mstore\n        /* \"#utility.yul\":3040:3044   */\n      0x20\n        /* \"#utility.yul\":3035:3038   */\n      dup3\n        /* \"#utility.yul\":3031:3045   */\n      add\n        /* \"#utility.yul\":3016:3045   */\n      swap1\n      pop\n        /* \"#utility.yul\":2882:3051   */\n      swap3\n      swap2\n      pop\n      pop\n      jump\t// out\n        /* \"#utility.yul\":3057:3239   */\n    tag_91:\n        /* \"#utility.yul\":3197:3231   */\n      0x416d6f756e74206d7573742062652067726561746572207468616e207a65726f\n        /* \"#utility.yul\":3193:3194   */\n      0x00\n        /* \"#utility.yul\":3185:3191   */\n      dup3\n        /* \"#utility.yul\":3181:3195   */\n      add\n        /* \"#utility.yul\":3174:3232   */\n      mstore\n        /* \"#utility.yul\":3057:3239   */\n      pop\n      jump\t// out\n        /* \"#utility.yul\":3245:3611   */\n    tag_92:\n        /* \"#utility.yul\":3387:3390   */\n      0x00\n        /* \"#utility.yul\":3408:3475   */\n      tag_151\n        /* \"#utility.yul\":3472:3474   */\n      0x20\n        /* \"#utility.yul\":3467:3470   */\n      dup4\n        /* \"#utility.yul\":3408:3475   */\n      tag_90\n      jump\t// in\n    tag_151:\n        /* \"#utility.yul\":3401:3475   */\n      swap2\n      pop\n        /* \"#utility.yul\":3484:3577   */\n      tag_152\n        /* \"#utility.yul\":3573:3576   */\n      dup3\n        /* \"#utility.yul\":3484:3577   */\n      tag_91\n      jump\t// in\n    tag_152:\n        /* \"#utility.yul\":3602:3604   */\n      0x20\n        /* \"#utility.yul\":3597:3600   */\n      dup3\n        /* \"#utility.yul\":3593:3605   */\n      add\n        /* \"#utility.yul\":3586:3605   */\n      swap1\n      pop\n        /* \"#utility.yul\":3245:3611   */\n      swap2\n      swap1\n      pop\n      jump\t// out\n        /* \"#utility.yul\":3617:4036   */\n    tag_34:\n        /* \"#utility.yul\":3783:3787   */\n      0x00\n        /* \"#utility.yul\":3821:3823   */\n      0x20\n        /* \"#utility.yul\":3810:3819   */\n      dup3\n        /* \"#utility.yul\":3806:3824   */\n      add\n        /* \"#utility.yul\":3798:3824   */\n      swap1\n      pop\n        /* \"#utility.yul\":3870:3879   */\n      dup2\n        /* \"#utility.yul\":3864:3868   */\n      dup2\n        /* \"#utility.yul\":3860:3880   */\n      sub\n        /* \"#utility.yul\":3856:3857   */\n      0x00\n        /* \"#utility.yul\":3845:3854   */\n      dup4\n        /* \"#utility.yul\":3841:3858   */\n      add\n        /* \"#utility.yul\":3834:3881   */\n      mstore\n        /* \"#utility.yul\":3898:4029   */\n      tag_154\n        /* \"#utility.yul\":4024:4028   */\n      dup2\n        /* \"#utility.yul\":3898:4029   */\n      tag_92\n      jump\t// in\n    tag_154:\n        /* \"#utility.yul\":3890:4029   */\n      swap1\n      pop\n        /* \"#utility.yul\":3617:4036   */\n      swap2\n      swap1\n      pop\n      jump\t// out\n        /* \"#utility.yul\":4042:4222   */\n    tag_93:\n        /* \"#utility.yul\":4090:4167   */\n      0x4e487b7100000000000000000000000000000000000000000000000000000000\n        /* \"#utility.yul\":4087:4088   */\n      0x00\n        /* \"#utility.yul\":4080:4168   */\n      mstore\n        /* \"#utility.yul\":4187:4191   */\n      0x11\n        /* \"#utility.yul\":4184:4185   */\n      0x04\n        /* \"#utility.yul\":4177:4192   */\n      mstore\n        /* \"#utility.yul\":4211:4215   */\n      0x24\n        /* \"#utility.yul\":4208:4209   */\n      0x00\n        /* \"#utility.yul\":4201:4216   */\n      revert\n        /* \"#utility.yul\":4228:4638   */\n    tag_39:\n        /* \"#utility.yul\":4268:4275   */\n      0x00\n        /* \"#utility.yul\":4291:4311   */\n      tag_157\n        /* \"#utility.yul\":4309:4310   */\n      dup3\n        /* \"#utility.yul\":4291:4311   */\n      tag_83\n      jump\t// in\n    tag_157:\n        /* \"#utility.yul\":4286:4311   */\n      swap2\n      pop\n        /* \"#utility.yul\":4325:4345   */\n      tag_158\n        /* \"#utility.yul\":4343:4344   */\n      dup4\n        /* \"#utility.yul\":4325:4345   */\n      tag_83\n      jump\t// in\n    tag_158:\n        /* \"#utility.yul\":4320:4345   */\n      swap3\n      pop\n        /* \"#utility.yul\":4380:4381   */\n      dup3\n        /* \"#utility.yul\":4377:4378   */\n      dup3\n        /* \"#utility.yul\":4373:4382   */\n      mul\n        /* \"#utility.yul\":4402:4432   */\n      tag_159\n        /* \"#utility.yul\":4420:4431   */\n      dup2\n        /* \"#utility.yul\":4402:4432   */\n      tag_83\n      jump\t// in\n    tag_159:\n        /* \"#utility.yul\":4391:4432   */\n      swap2\n      pop\n        /* \"#utility.yul\":4581:4582   */\n      dup3\n        /* \"#utility.yul\":4572:4579   */\n      dup3\n        /* \"#utility.yul\":4568:4583   */\n      div\n        /* \"#utility.yul\":4565:4566   */\n      dup5\n        /* \"#utility.yul\":4562:4584   */\n      eq\n        /* \"#utility.yul\":4542:4543   */\n      dup4\n        /* \"#utility.yul\":4535:4544   */\n      iszero\n        /* \"#utility.yul\":4515:4598   */\n      or\n        /* \"#utility.yul\":4492:4631   */\n      tag_160\n      jumpi\n        /* \"#utility.yul\":4611:4629   */\n      tag_161\n      tag_93\n      jump\t// in\n    tag_161:\n        /* \"#utility.yul\":4492:4631   */\n    tag_160:\n        /* \"#utility.yul\":4276:4638   */\n      pop\n        /* \"#utility.yul\":4228:4638   */\n      swap3\n      swap2\n      pop\n      pop\n      jump\t// out\n        /* \"#utility.yul\":4644:4835   */\n    tag_41:\n        /* \"#utility.yul\":4684:4687   */\n      0x00\n        /* \"#utility.yul\":4703:4723   */\n      tag_163\n        /* \"#utility.yul\":4721:4722   */\n      dup3\n        /* \"#utility.yul\":4703:4723   */\n      tag_83\n      jump\t// in\n    tag_163:\n        /* \"#utility.yul\":4698:4723   */\n      swap2\n      pop\n        /* \"#utility.yul\":4737:4757   */\n      tag_164\n        /* \"#utility.yul\":4755:4756   */\n      dup4\n        /* \"#utility.yul\":4737:4757   */\n      tag_83\n      jump\t// in\n    tag_164:\n        /* \"#utility.yul\":4732:4757   */\n      swap3\n      pop\n        /* \"#utility.yul\":4780:4781   */\n      dup3\n        /* \"#utility.yul\":4777:4778   */\n      dup3\n        /* \"#utility.yul\":4773:4782   */\n      add\n        /* \"#utility.yul\":4766:4782   */\n      swap1\n      pop\n        /* \"#utility.yul\":4801:4804   */\n      dup1\n        /* \"#utility.yul\":4798:4799   */\n      dup3\n        /* \"#utility.yul\":4795:4805   */\n      gt\n        /* \"#utility.yul\":4792:4828   */\n      iszero\n      tag_165\n      jumpi\n        /* \"#utility.yul\":4808:4826   */\n      tag_166\n      tag_93\n      jump\t// in\n    tag_166:\n        /* \"#utility.yul\":4792:4828   */\n    tag_165:\n        /* \"#utility.yul\":4644:4835   */\n      swap3\n      swap2\n      pop\n      pop\n      jump\t// out\n        /* \"#utility.yul\":4841:5021   */\n    tag_94:\n        /* \"#utility.yul\":4889:4966   */\n      0x4e487b7100000000000000000000000000000000000000000000000000000000\n        /* \"#utility.yul\":4886:4887   */\n      0x00\n        /* \"#utility.yul\":4879:4967   */\n      mstore\n        /* \"#utility.yul\":4986:4990   */\n      0x12\n        /* \"#utility.yul\":4983:4984   */\n      0x04\n        /* \"#utility.yul\":4976:4991   */\n      mstore\n        /* \"#utility.yul\":5010:5014   */\n      0x24\n        /* \"#utility.yul\":5007:5008   */\n      0x00\n        /* \"#utility.yul\":5000:5015   */\n      revert\n        /* \"#utility.yul\":5027:5212   */\n    tag_45:\n        /* \"#utility.yul\":5067:5068   */\n      0x00\n        /* \"#utility.yul\":5084:5104   */\n      tag_169\n        /* \"#utility.yul\":5102:5103   */\n      dup3\n        /* \"#utility.yul\":5084:5104   */\n      tag_83\n      jump\t// in\n    tag_169:\n        /* \"#utility.yul\":5079:5104   */\n      swap2\n      pop\n        /* \"#utility.yul\":5118:5138   */\n      tag_170\n        /* \"#utility.yul\":5136:5137   */\n      dup4\n        /* \"#utility.yul\":5118:5138   */\n      tag_83\n      jump\t// in\n    tag_170:\n        /* \"#utility.yul\":5113:5138   */\n      swap3\n      pop\n        /* \"#utility.yul\":5157:5158   */\n      dup3\n        /* \"#utility.yul\":5147:5182   */\n      tag_171\n      jumpi\n        /* \"#utility.yul\":5162:5180   */\n      tag_172\n      tag_94\n      jump\t// in\n    tag_172:\n        /* \"#utility.yul\":5147:5182   */\n    tag_171:\n        /* \"#utility.yul\":5204:5205   */\n      dup3\n        /* \"#utility.yul\":5201:5202   */\n      dup3\n        /* \"#utility.yul\":5197:5206   */\n      div\n        /* \"#utility.yul\":5192:5206   */\n      swap1\n      pop\n        /* \"#utility.yul\":5027:5212   */\n      swap3\n      swap2\n      pop\n      pop\n      jump\t// out\n        /* \"#utility.yul\":5218:5314   */\n    tag_95:\n        /* \"#utility.yul\":5255:5262   */\n      0x00\n        /* \"#utility.yul\":5284:5308   */\n      tag_174\n        /* \"#utility.yul\":5302:5307   */\n      dup3\n        /* \"#utility.yul\":5284:5308   */\n      tag_75\n      jump\t// in\n    tag_174:\n        /* \"#utility.yul\":5273:5308   */\n      swap1\n      pop\n        /* \"#utility.yul\":5218:5314   */\n      swap2\n      swap1\n      pop\n      jump\t// out\n        /* \"#utility.yul\":5320:5438   */\n    tag_96:\n        /* \"#utility.yul\":5407:5431   */\n      tag_176\n        /* \"#utility.yul\":5425:5430   */\n      dup2\n        /* \"#utility.yul\":5407:5431   */\n      tag_95\n      jump\t// in\n    tag_176:\n        /* \"#utility.yul\":5402:5405   */\n      dup3\n        /* \"#utility.yul\":5395:5432   */\n      mstore\n        /* \"#utility.yul\":5320:5438   */\n      pop\n      pop\n      jump\t// out\n        /* \"#utility.yul\":5444:5886   */\n    tag_47:\n        /* \"#utility.yul\":5593:5597   */\n      0x00\n        /* \"#utility.yul\":5631:5633   */\n      0x60\n        /* \"#utility.yul\":5620:5629   */\n      dup3\n        /* \"#utility.yul\":5616:5634   */\n      add\n        /* \"#utility.yul\":5608:5634   */\n      swap1\n      pop\n        /* \"#utility.yul\":5644:5715   */\n      tag_178\n        /* \"#utility.yul\":5712:5713   */\n      0x00\n        /* \"#utility.yul\":5701:5710   */\n      dup4\n        /* \"#utility.yul\":5697:5714   */\n      add\n        /* \"#utility.yul\":5688:5694   */\n      dup7\n        /* \"#utility.yul\":5644:5715   */\n      tag_96\n      jump\t// in\n    tag_178:\n        /* \"#utility.yul\":5725:5797   */\n      tag_179\n        /* \"#utility.yul\":5793:5795   */\n      0x20\n        /* \"#utility.yul\":5782:5791   */\n      dup4\n        /* \"#utility.yul\":5778:5796   */\n      add\n        /* \"#utility.yul\":5769:5775   */\n      dup6\n        /* \"#utility.yul\":5725:5797   */\n      tag_96\n      jump\t// in\n    tag_179:\n        /* \"#utility.yul\":5807:5879   */\n      tag_180\n        /* \"#utility.yul\":5875:5877   */\n      0x40\n        /* \"#utility.yul\":5864:5873   */\n      dup4\n        /* \"#utility.yul\":5860:5878   */\n      add\n        /* \"#utility.yul\":5851:5857   */\n      dup5\n        /* \"#utility.yul\":5807:5879   */\n      tag_84\n      jump\t// in\n    tag_180:\n        /* \"#utility.yul\":5444:5886   */\n      swap5\n      swap4\n      pop\n      pop\n      pop\n      pop\n      jump\t// out\n        /* \"#utility.yul\":5892:5982   */\n    tag_97:\n        /* \"#utility.yul\":5926:5933   */\n      0x00\n        /* \"#utility.yul\":5969:5974   */\n      dup2\n        /* \"#utility.yul\":5962:5975   */\n      iszero\n        /* \"#utility.yul\":5955:5976   */\n      iszero\n        /* \"#utility.yul\":5944:5976   */\n      swap1\n      pop\n        /* \"#utility.yul\":5892:5982   */\n      swap2\n      swap1\n      pop\n      jump\t// out\n        /* \"#utility.yul\":5988:6104   */\n    tag_98:\n        /* \"#utility.yul\":6058:6079   */\n      tag_183\n        /* \"#utility.yul\":6073:6078   */\n      dup2\n        /* \"#utility.yul\":6058:6079   */\n      tag_97\n      jump\t// in\n    tag_183:\n        /* \"#utility.yul\":6051:6056   */\n      dup2\n        /* \"#utility.yul\":6048:6080   */\n      eq\n        /* \"#utility.yul\":6038:6098   */\n      tag_184\n      jumpi\n        /* \"#utility.yul\":6094:6095   */\n      0x00\n        /* \"#utility.yul\":6091:6092   */\n      dup1\n        /* \"#utility.yul\":6084:6096   */\n      revert\n        /* \"#utility.yul\":6038:6098   */\n    tag_184:\n        /* \"#utility.yul\":5988:6104   */\n      pop\n      jump\t// out\n        /* \"#utility.yul\":6110:6247   */\n    tag_99:\n        /* \"#utility.yul\":6164:6169   */\n      0x00\n        /* \"#utility.yul\":6195:6201   */\n      dup2\n        /* \"#utility.yul\":6189:6202   */\n      mload\n        /* \"#utility.yul\":6180:6202   */\n      swap1\n      pop\n        /* \"#utility.yul\":6211:6241   */\n      tag_186\n        /* \"#utility.yul\":6235:6240   */\n      dup2\n        /* \"#utility.yul\":6211:6241   */\n      tag_98\n      jump\t// in\n    tag_186:\n        /* \"#utility.yul\":6110:6247   */\n      swap3\n      swap2\n      pop\n      pop\n      jump\t// out\n        /* \"#utility.yul\":6253:6598   */\n    tag_51:\n        /* \"#utility.yul\":6320:6326   */\n      0x00\n        /* \"#utility.yul\":6369:6371   */\n      0x20\n        /* \"#utility.yul\":6357:6366   */\n      dup3\n        /* \"#utility.yul\":6348:6355   */\n      dup5\n        /* \"#utility.yul\":6344:6367   */\n      sub\n        /* \"#utility.yul\":6340:6372   */\n      slt\n        /* \"#utility.yul\":6337:6456   */\n      iszero\n      tag_188\n      jumpi\n        /* \"#utility.yul\":6375:6454   */\n      tag_189\n      tag_86\n      jump\t// in\n    tag_189:\n        /* \"#utility.yul\":6337:6456   */\n    tag_188:\n        /* \"#utility.yul\":6495:6496   */\n      0x00\n        /* \"#utility.yul\":6520:6581   */\n      tag_190\n        /* \"#utility.yul\":6573:6580   */\n      dup5\n        /* \"#utility.yul\":6564:6570   */\n      dup3\n        /* \"#utility.yul\":6553:6562   */\n      dup6\n        /* \"#utility.yul\":6549:6571   */\n      add\n        /* \"#utility.yul\":6520:6581   */\n      tag_99\n      jump\t// in\n    tag_190:\n        /* \"#utility.yul\":6510:6581   */\n      swap2\n      pop\n        /* \"#utility.yul\":6466:6591   */\n      pop\n        /* \"#utility.yul\":6253:6598   */\n      swap3\n      swap2\n      pop\n      pop\n      jump\t// out\n        /* \"#utility.yul\":6604:6936   */\n    tag_57:\n        /* \"#utility.yul\":6725:6729   */\n      0x00\n        /* \"#utility.yul\":6763:6765   */\n      0x40\n        /* \"#utility.yul\":6752:6761   */\n      dup3\n        /* \"#utility.yul\":6748:6766   */\n      add\n        /* \"#utility.yul\":6740:6766   */\n      swap1\n      pop\n        /* \"#utility.yul\":6776:6847   */\n      tag_192\n        /* \"#utility.yul\":6844:6845   */\n      0x00\n        /* \"#utility.yul\":6833:6842   */\n      dup4\n        /* \"#utility.yul\":6829:6846   */\n      add\n        /* \"#utility.yul\":6820:6826   */\n      dup6\n        /* \"#utility.yul\":6776:6847   */\n      tag_96\n      jump\t// in\n    tag_192:\n        /* \"#utility.yul\":6857:6929   */\n      tag_193\n        /* \"#utility.yul\":6925:6927   */\n      0x20\n        /* \"#utility.yul\":6914:6923   */\n      dup4\n        /* \"#utility.yul\":6910:6928   */\n      add\n        /* \"#utility.yul\":6901:6907   */\n      dup5\n        /* \"#utility.yul\":6857:6929   */\n      tag_84\n      jump\t// in\n    tag_193:\n        /* \"#utility.yul\":6604:6936   */\n      swap4\n      swap3\n      pop\n      pop\n      pop\n      jump\t// out\n        /* \"#utility.yul\":6942:7274   */\n    tag_62:\n        /* \"#utility.yul\":7063:7067   */\n      0x00\n        /* \"#utility.yul\":7101:7103   */\n      0x40\n        /* \"#utility.yul\":7090:7099   */\n      dup3\n        /* \"#utility.yul\":7086:7104   */\n      add\n        /* \"#utility.yul\":7078:7104   */\n      swap1\n      pop\n        /* \"#utility.yul\":7114:7185   */\n      tag_195\n        /* \"#utility.yul\":7182:7183   */\n      0x00\n        /* \"#utility.yul\":7171:7180   */\n      dup4\n        /* \"#utility.yul\":7167:7184   */\n      add\n        /* \"#utility.yul\":7158:7164   */\n      dup6\n        /* \"#utility.yul\":7114:7185   */\n      tag_84\n      jump\t// in\n    tag_195:\n        /* \"#utility.yul\":7195:7267   */\n      tag_196\n        /* \"#utility.yul\":7263:7265   */\n      0x20\n        /* \"#utility.yul\":7252:7261   */\n      dup4\n        /* \"#utility.yul\":7248:7266   */\n      add\n        /* \"#utility.yul\":7239:7245   */\n      dup5\n        /* \"#utility.yul\":7195:7267   */\n      tag_84\n      jump\t// in\n    tag_196:\n        /* \"#utility.yul\":6942:7274   */\n      swap4\n      swap3\n      pop\n      pop\n      pop\n      jump\t// out\n        /* \"#utility.yul\":7280:7385   */\n    tag_100:\n        /* \"#utility.yul\":7316:7323   */\n      0x00\n        /* \"#utility.yul\":7356:7378   */\n      0xffffffffffffffffffff\n        /* \"#utility.yul\":7349:7354   */\n      dup3\n        /* \"#utility.yul\":7345:7379   */\n      and\n        /* \"#utility.yul\":7334:7379   */\n      swap1\n      pop\n        /* \"#utility.yul\":7280:7385   */\n      swap2\n      swap1\n      pop\n      jump\t// out\n        /* \"#utility.yul\":7391:7511   */\n    tag_101:\n        /* \"#utility.yul\":7463:7486   */\n      tag_199\n        /* \"#utility.yul\":7480:7485   */\n      dup2\n        /* \"#utility.yul\":7463:7486   */\n      tag_100\n      jump\t// in\n    tag_199:\n        /* \"#utility.yul\":7456:7461   */\n      dup2\n        /* \"#utility.yul\":7453:7487   */\n      eq\n        /* \"#utility.yul\":7443:7505   */\n      tag_200\n      jumpi\n        /* \"#utility.yul\":7501:7502   */\n      0x00\n        /* \"#utility.yul\":7498:7499   */\n      dup1\n        /* \"#utility.yul\":7491:7503   */\n      revert\n        /* \"#utility.yul\":7443:7505   */\n    tag_200:\n        /* \"#utility.yul\":7391:7511   */\n      pop\n      jump\t// out\n        /* \"#utility.yul\":7517:7658   */\n    tag_102:\n        /* \"#utility.yul\":7573:7578   */\n      0x00\n        /* \"#utility.yul\":7604:7610   */\n      dup2\n        /* \"#utility.yul\":7598:7611   */\n      mload\n        /* \"#utility.yul\":7589:7611   */\n      swap1\n      pop\n        /* \"#utility.yul\":7620:7652   */\n      tag_202\n        /* \"#utility.yul\":7646:7651   */\n      dup2\n        /* \"#utility.yul\":7620:7652   */\n      tag_101\n      jump\t// in\n    tag_202:\n        /* \"#utility.yul\":7517:7658   */\n      swap3\n      swap2\n      pop\n      pop\n      jump\t// out\n        /* \"#utility.yul\":7664:7740   */\n    tag_103:\n        /* \"#utility.yul\":7700:7707   */\n      0x00\n        /* \"#utility.yul\":7729:7734   */\n      dup2\n        /* \"#utility.yul\":7718:7734   */\n      swap1\n      pop\n        /* \"#utility.yul\":7664:7740   */\n      swap2\n      swap1\n      pop\n      jump\t// out\n        /* \"#utility.yul\":7746:7866   */\n    tag_104:\n        /* \"#utility.yul\":7818:7841   */\n      tag_205\n        /* \"#utility.yul\":7835:7840   */\n      dup2\n        /* \"#utility.yul\":7818:7841   */\n      tag_103\n      jump\t// in\n    tag_205:\n        /* \"#utility.yul\":7811:7816   */\n      dup2\n        /* \"#utility.yul\":7808:7842   */\n      eq\n        /* \"#utility.yul\":7798:7860   */\n      tag_206\n      jumpi\n        /* \"#utility.yul\":7856:7857   */\n      0x00\n        /* \"#utility.yul\":7853:7854   */\n      dup1\n        /* \"#utility.yul\":7846:7858   */\n      revert\n        /* \"#utility.yul\":7798:7860   */\n    tag_206:\n        /* \"#utility.yul\":7746:7866   */\n      pop\n      jump\t// out\n        /* \"#utility.yul\":7872:8013   */\n    tag_105:\n        /* \"#utility.yul\":7928:7933   */\n      0x00\n        /* \"#utility.yul\":7959:7965   */\n      dup2\n        /* \"#utility.yul\":7953:7966   */\n      mload\n        /* \"#utility.yul\":7944:7966   */\n      swap1\n      pop\n        /* \"#utility.yul\":7975:8007   */\n      tag_208\n        /* \"#utility.yul\":8001:8006   */\n      dup2\n        /* \"#utility.yul\":7975:8007   */\n      tag_104\n      jump\t// in\n    tag_208:\n        /* \"#utility.yul\":7872:8013   */\n      swap3\n      swap2\n      pop\n      pop\n      jump\t// out\n        /* \"#utility.yul\":8019:8162   */\n    tag_106:\n        /* \"#utility.yul\":8076:8081   */\n      0x00\n        /* \"#utility.yul\":8107:8113   */\n      dup2\n        /* \"#utility.yul\":8101:8114   */\n      mload\n        /* \"#utility.yul\":8092:8114   */\n      swap1\n      pop\n        /* \"#utility.yul\":8123:8156   */\n      tag_210\n        /* \"#utility.yul\":8150:8155   */\n      dup2\n        /* \"#utility.yul\":8123:8156   */\n      tag_88\n      jump\t// in\n    tag_210:\n        /* \"#utility.yul\":8019:8162   */\n      swap3\n      swap2\n      pop\n      pop\n      jump\t// out\n        /* \"#utility.yul\":8168:9139   */\n    tag_67:\n        /* \"#utility.yul\":8271:8277   */\n      0x00\n        /* \"#utility.yul\":8279:8285   */\n      dup1\n        /* \"#utility.yul\":8287:8293   */\n      0x00\n        /* \"#utility.yul\":8295:8301   */\n      dup1\n        /* \"#utility.yul\":8303:8309   */\n      0x00\n        /* \"#utility.yul\":8352:8355   */\n      0xa0\n        /* \"#utility.yul\":8340:8349   */\n      dup7\n        /* \"#utility.yul\":8331:8338   */\n      dup9\n        /* \"#utility.yul\":8327:8350   */\n      sub\n        /* \"#utility.yul\":8323:8356   */\n      slt\n        /* \"#utility.yul\":8320:8440   */\n      iszero\n      tag_212\n      jumpi\n        /* \"#utility.yul\":8359:8438   */\n      tag_213\n      tag_86\n      jump\t// in\n    tag_213:\n        /* \"#utility.yul\":8320:8440   */\n    tag_212:\n        /* \"#utility.yul\":8479:8480   */\n      0x00\n        /* \"#utility.yul\":8504:8567   */\n      tag_214\n        /* \"#utility.yul\":8559:8566   */\n      dup9\n        /* \"#utility.yul\":8550:8556   */\n      dup3\n        /* \"#utility.yul\":8539:8548   */\n      dup10\n        /* \"#utility.yul\":8535:8557   */\n      add\n        /* \"#utility.yul\":8504:8567   */\n      tag_102\n      jump\t// in\n    tag_214:\n        /* \"#utility.yul\":8494:8567   */\n      swap6\n      pop\n        /* \"#utility.yul\":8450:8577   */\n      pop\n        /* \"#utility.yul\":8616:8618   */\n      0x20\n        /* \"#utility.yul\":8642:8705   */\n      tag_215\n        /* \"#utility.yul\":8697:8704   */\n      dup9\n        /* \"#utility.yul\":8688:8694   */\n      dup3\n        /* \"#utility.yul\":8677:8686   */\n      dup10\n        /* \"#utility.yul\":8673:8695   */\n      add\n        /* \"#utility.yul\":8642:8705   */\n      tag_105\n      jump\t// in\n    tag_215:\n        /* \"#utility.yul\":8632:8705   */\n      swap5\n      pop\n        /* \"#utility.yul\":8587:8715   */\n      pop\n        /* \"#utility.yul\":8754:8756   */\n      0x40\n        /* \"#utility.yul\":8780:8844   */\n      tag_216\n        /* \"#utility.yul\":8836:8843   */\n      dup9\n        /* \"#utility.yul\":8827:8833   */\n      dup3\n        /* \"#utility.yul\":8816:8825   */\n      dup10\n        /* \"#utility.yul\":8812:8834   */\n      add\n        /* \"#utility.yul\":8780:8844   */\n      tag_106\n      jump\t// in\n    tag_216:\n        /* \"#utility.yul\":8770:8844   */\n      swap4\n      pop\n        /* \"#utility.yul\":8725:8854   */\n      pop\n        /* \"#utility.yul\":8893:8895   */\n      0x60\n        /* \"#utility.yul\":8919:8983   */\n      tag_217\n        /* \"#utility.yul\":8975:8982   */\n      dup9\n        /* \"#utility.yul\":8966:8972   */\n      dup3\n        /* \"#utility.yul\":8955:8964   */\n      dup10\n        /* \"#utility.yul\":8951:8973   */\n      add\n        /* \"#utility.yul\":8919:8983   */\n      tag_106\n      jump\t// in\n    tag_217:\n        /* \"#utility.yul\":8909:8983   */\n      swap3\n      pop\n        /* \"#utility.yul\":8864:8993   */\n      pop\n        /* \"#utility.yul\":9032:9035   */\n      0x80\n        /* \"#utility.yul\":9059:9122   */\n      tag_218\n        /* \"#utility.yul\":9114:9121   */\n      dup9\n        /* \"#utility.yul\":9105:9111   */\n      dup3\n        /* \"#utility.yul\":9094:9103   */\n      dup10\n        /* \"#utility.yul\":9090:9112   */\n      add\n        /* \"#utility.yul\":9059:9122   */\n      tag_102\n      jump\t// in\n    tag_218:\n        /* \"#utility.yul\":9049:9122   */\n      swap2\n      pop\n        /* \"#utility.yul\":9003:9132   */\n      pop\n        /* \"#utility.yul\":8168:9139   */\n      swap3\n      swap6\n      pop\n      swap3\n      swap6\n      swap1\n      swap4\n      pop\n      jump\t// out\n        /* \"#utility.yul\":9145:9308   */\n    tag_107:\n        /* \"#utility.yul\":9285:9300   */\n      0x496e76616c696420707269636500000000000000000000000000000000000000\n        /* \"#utility.yul\":9281:9282   */\n      0x00\n        /* \"#utility.yul\":9273:9279   */\n      dup3\n        /* \"#utility.yul\":9269:9283   */\n      add\n        /* \"#utility.yul\":9262:9301   */\n      mstore\n        /* \"#utility.yul\":9145:9308   */\n      pop\n      jump\t// out\n        /* \"#utility.yul\":9314:9680   */\n    tag_108:\n        /* \"#utility.yul\":9456:9459   */\n      0x00\n        /* \"#utility.yul\":9477:9544   */\n      tag_221\n        /* \"#utility.yul\":9541:9543   */\n      0x0d\n        /* \"#utility.yul\":9536:9539   */\n      dup4\n        /* \"#utility.yul\":9477:9544   */\n      tag_90\n      jump\t// in\n    tag_221:\n        /* \"#utility.yul\":9470:9544   */\n      swap2\n      pop\n        /* \"#utility.yul\":9553:9646   */\n      tag_222\n        /* \"#utility.yul\":9642:9645   */\n      dup3\n        /* \"#utility.yul\":9553:9646   */\n      tag_107\n      jump\t// in\n    tag_222:\n        /* \"#utility.yul\":9671:9673   */\n      0x20\n        /* \"#utility.yul\":9666:9669   */\n      dup3\n        /* \"#utility.yul\":9662:9674   */\n      add\n        /* \"#utility.yul\":9655:9674   */\n      swap1\n      pop\n        /* \"#utility.yul\":9314:9680   */\n      swap2\n      swap1\n      pop\n      jump\t// out\n        /* \"#utility.yul\":9686:10105   */\n    tag_70:\n        /* \"#utility.yul\":9852:9856   */\n      0x00\n        /* \"#utility.yul\":9890:9892   */\n      0x20\n        /* \"#utility.yul\":9879:9888   */\n      dup3\n        /* \"#utility.yul\":9875:9893   */\n      add\n        /* \"#utility.yul\":9867:9893   */\n      swap1\n      pop\n        /* \"#utility.yul\":9939:9948   */\n      dup2\n        /* \"#utility.yul\":9933:9937   */\n      dup2\n        /* \"#utility.yul\":9929:9949   */\n      sub\n        /* \"#utility.yul\":9925:9926   */\n      0x00\n        /* \"#utility.yul\":9914:9923   */\n      dup4\n        /* \"#utility.yul\":9910:9927   */\n      add\n        /* \"#utility.yul\":9903:9950   */\n      mstore\n        /* \"#utility.yul\":9967:10098   */\n      tag_224\n        /* \"#utility.yul\":10093:10097   */\n      dup2\n        /* \"#utility.yul\":9967:10098   */\n      tag_108\n      jump\t// in\n    tag_224:\n        /* \"#utility.yul\":9959:10098   */\n      swap1\n      pop\n        /* \"#utility.yul\":9686:10105   */\n      swap2\n      swap1\n      pop\n      jump\t// out\n        /* \"#utility.yul\":10111:10229   */\n    tag_109:\n        /* \"#utility.yul\":10182:10204   */\n      tag_226\n        /* \"#utility.yul\":10198:10203   */\n      dup2\n        /* \"#utility.yul\":10182:10204   */\n      tag_81\n      jump\t// in\n    tag_226:\n        /* \"#utility.yul\":10175:10180   */\n      dup2\n        /* \"#utility.yul\":10172:10205   */\n      eq\n        /* \"#utility.yul\":10162:10223   */\n      tag_227\n      jumpi\n        /* \"#utility.yul\":10219:10220   */\n      0x00\n        /* \"#utility.yul\":10216:10217   */\n      dup1\n        /* \"#utility.yul\":10209:10221   */\n      revert\n        /* \"#utility.yul\":10162:10223   */\n    tag_227:\n        /* \"#utility.yul\":10111:10229   */\n      pop\n      jump\t// out\n        /* \"#utility.yul\":10235:10374   */\n    tag_110:\n        /* \"#utility.yul\":10290:10295   */\n      0x00\n        /* \"#utility.yul\":10321:10327   */\n      dup2\n        /* \"#utility.yul\":10315:10328   */\n      mload\n        /* \"#utility.yul\":10306:10328   */\n      swap1\n      pop\n        /* \"#utility.yul\":10337:10368   */\n      tag_229\n        /* \"#utility.yul\":10362:10367   */\n      dup2\n        /* \"#utility.yul\":10337:10368   */\n      tag_109\n      jump\t// in\n    tag_229:\n        /* \"#utility.yul\":10235:10374   */\n      swap3\n      swap2\n      pop\n      pop\n      jump\t// out\n        /* \"#utility.yul\":10380:10727   */\n    tag_74:\n        /* \"#utility.yul\":10448:10454   */\n      0x00\n        /* \"#utility.yul\":10497:10499   */\n      0x20\n        /* \"#utility.yul\":10485:10494   */\n      dup3\n        /* \"#utility.yul\":10476:10483   */\n      dup5\n        /* \"#utility.yul\":10472:10495   */\n      sub\n        /* \"#utility.yul\":10468:10500   */\n      slt\n        /* \"#utility.yul\":10465:10584   */\n      iszero\n      tag_231\n      jumpi\n        /* \"#utility.yul\":10503:10582   */\n      tag_232\n      tag_86\n      jump\t// in\n    tag_232:\n        /* \"#utility.yul\":10465:10584   */\n    tag_231:\n        /* \"#utility.yul\":10623:10624   */\n      0x00\n        /* \"#utility.yul\":10648:10710   */\n      tag_233\n        /* \"#utility.yul\":10702:10709   */\n      dup5\n        /* \"#utility.yul\":10693:10699   */\n      dup3\n        /* \"#utility.yul\":10682:10691   */\n      dup6\n        /* \"#utility.yul\":10678:10700   */\n      add\n        /* \"#utility.yul\":10648:10710   */\n      tag_110\n      jump\t// in\n    tag_233:\n        /* \"#utility.yul\":10638:10710   */\n      swap2\n      pop\n        /* \"#utility.yul\":10594:10720   */\n      pop\n        /* \"#utility.yul\":10380:10727   */\n      swap3\n      swap2\n      pop\n      pop\n      jump\t// out\n\n    auxdata: 0xa2646970667358221220186df58f6e22929904c980ab3e4ddeafab7fe6f4f5629c8b68080da328bca04c64736f6c634300081a0033\n}\n",
				"bytecode": {
					"linkReferences": {},
					"object": "608060405234801561000f575f80fd5b50604051610f61380380610f6183398181016040528101906100319190610322565b845f806101000a81548173ffffffffffffffffffffffffffffffffffffffff021916908373ffffffffffffffffffffffffffffffffffffffff1602179055508360015f6101000a81548173ffffffffffffffffffffffffffffffffffffffff021916908373ffffffffffffffffffffffffffffffffffffffff1602179055508260025f6101000a81548173ffffffffffffffffffffffffffffffffffffffff021916908373ffffffffffffffffffffffffffffffffffffffff1602179055508160035f6101000a81548173ffffffffffffffffffffffffffffffffffffffff021916908373ffffffffffffffffffffffffffffffffffffffff1602179055508060048190555060025f9054906101000a900473ffffffffffffffffffffffffffffffffffffffff1673ffffffffffffffffffffffffffffffffffffffff1663313ce5676040518163ffffffff1660e01b8152600401602060405180830381865afa1580156101a1573d5f803e3d5ffd5b505050506040513d601f19601f820116820180604052508101906101c591906103cf565b600360146101000a81548160ff021916908360ff16021790555060035f9054906101000a900473ffffffffffffffffffffffffffffffffffffffff1673ffffffffffffffffffffffffffffffffffffffff1663313ce5676040518163ffffffff1660e01b8152600401602060405180830381865afa158015610249573d5f803e3d5ffd5b505050506040513d601f19601f8201168201806040525081019061026d91906103cf565b600360156101000a81548160ff021916908360ff16021790555050505050506103fa565b5f80fd5b5f73ffffffffffffffffffffffffffffffffffffffff82169050919050565b5f6102be82610295565b9050919050565b6102ce816102b4565b81146102d8575f80fd5b50565b5f815190506102e9816102c5565b92915050565b5f819050919050565b610301816102ef565b811461030b575f80fd5b50565b5f8151905061031c816102f8565b92915050565b5f805f805f60a0868803121561033b5761033a610291565b5b5f610348888289016102db565b9550506020610359888289016102db565b945050604061036a888289016102db565b935050606061037b888289016102db565b925050608061038c8882890161030e565b9150509295509295909350565b5f60ff82169050919050565b6103ae81610399565b81146103b8575f80fd5b50565b5f815190506103c9816103a5565b92915050565b5f602082840312156103e4576103e3610291565b5b5f6103f1848285016103bb565b91505092915050565b610b5a806104075f395ff3fe608060405234801561000f575f80fd5b5060043610610060575f3560e01c80630fc63d1014610064578063485391a0146100825780634ac1126a146100a05780635f64b55b146100be57806394b918de146100dc578063b5f4abf9146100f8575b5f80fd5b61006c610116565b604051610079919061061a565b60405180910390f35b61008a610139565b604051610097919061064e565b60405180910390f35b6100a861014c565b6040516100b5919061067f565b60405180910390f35b6100c6610152565b6040516100d3919061061a565b60405180910390f35b6100f660048036038101906100f191906106c6565b610177565b005b610100610455565b60405161010d919061064e565b60405180910390f35b5f8054906101000a900473ffffffffffffffffffffffffffffffffffffffff1681565b600360159054906101000a900460ff1681565b60045481565b60015f9054906101000a900473ffffffffffffffffffffffffffffffffffffffff1681565b5f81116101b9576040517f08c379a00000000000000000000000000000000000000000000000000000000081526004016101b09061074b565b60405180910390fd5b5f6101e460025f9054906101000a900473ffffffffffffffffffffffffffffffffffffffff16610468565b5090505f61021260035f9054906101000a900473ffffffffffffffffffffffffffffffffffffffff16610468565b5090505f6064826102239190610796565b600454606461023291906107d7565b848661023e9190610796565b6102489190610796565b6102529190610837565b90505f8054906101000a900473ffffffffffffffffffffffffffffffffffffffff1673ffffffffffffffffffffffffffffffffffffffff166323b872dd3330876040518463ffffffff1660e01b81526004016102b093929190610887565b6020604051808303815f875af11580156102cc573d5f803e3d5ffd5b505050506040513d601f19601f820116820180604052508101906102f091906108f1565b505f8054906101000a900473ffffffffffffffffffffffffffffffffffffffff1673ffffffffffffffffffffffffffffffffffffffff166342966c68856040518263ffffffff1660e01b8152600401610349919061067f565b5f604051808303815f87803b158015610360575f80fd5b505af1158015610372573d5f803e3d5ffd5b5050505060015f9054906101000a900473ffffffffffffffffffffffffffffffffffffffff1673ffffffffffffffffffffffffffffffffffffffff166340c10f1933836040518363ffffffff1660e01b81526004016103d292919061091c565b5f604051808303815f87803b1580156103e9575f80fd5b505af11580156103fb573d5f803e3d5ffd5b505050503373ffffffffffffffffffffffffffffffffffffffff167f77f92a1b6a1a11de8ca49515ad4c1fad45632dd3442167d74b90b304a3c7a7588583604051610447929190610943565b60405180910390a250505050565b600360149054906101000a900460ff1681565b5f805f8373ffffffffffffffffffffffffffffffffffffffff1663feaf968c6040518163ffffffff1660e01b815260040160a060405180830381865afa1580156104b4573d5f803e3d5ffd5b505050506040513d601f19601f820116820180604052508101906104d891906109f0565b5050509150505f8113610520576040517f08c379a000000000000000000000000000000000000000000000000000000000815260040161051790610ab1565b60405180910390fd5b5f8473ffffffffffffffffffffffffffffffffffffffff1663313ce5676040518163ffffffff1660e01b8152600401602060405180830381865afa15801561056a573d5f803e3d5ffd5b505050506040513d601f19601f8201168201806040525081019061058e9190610af9565b9050818160ff16935093505050915091565b5f73ffffffffffffffffffffffffffffffffffffffff82169050919050565b5f819050919050565b5f6105e26105dd6105d8846105a0565b6105bf565b6105a0565b9050919050565b5f6105f3826105c8565b9050919050565b5f610604826105e9565b9050919050565b610614816105fa565b82525050565b5f60208201905061062d5f83018461060b565b92915050565b5f60ff82169050919050565b61064881610633565b82525050565b5f6020820190506106615f83018461063f565b92915050565b5f819050919050565b61067981610667565b82525050565b5f6020820190506106925f830184610670565b92915050565b5f80fd5b6106a581610667565b81146106af575f80fd5b50565b5f813590506106c08161069c565b92915050565b5f602082840312156106db576106da610698565b5b5f6106e8848285016106b2565b91505092915050565b5f82825260208201905092915050565b7f416d6f756e74206d7573742062652067726561746572207468616e207a65726f5f82015250565b5f6107356020836106f1565b915061074082610701565b602082019050919050565b5f6020820190508181035f83015261076281610729565b9050919050565b7f4e487b71000000000000000000000000000000000000000000000000000000005f52601160045260245ffd5b5f6107a082610667565b91506107ab83610667565b92508282026107b981610667565b915082820484148315176107d0576107cf610769565b5b5092915050565b5f6107e182610667565b91506107ec83610667565b925082820190508082111561080457610803610769565b5b92915050565b7f4e487b71000000000000000000000000000000000000000000000000000000005f52601260045260245ffd5b5f61084182610667565b915061084c83610667565b92508261085c5761085b61080a565b5b828204905092915050565b5f610871826105a0565b9050919050565b61088181610867565b82525050565b5f60608201905061089a5f830186610878565b6108a76020830185610878565b6108b46040830184610670565b949350505050565b5f8115159050919050565b6108d0816108bc565b81146108da575f80fd5b50565b5f815190506108eb816108c7565b92915050565b5f6020828403121561090657610905610698565b5b5f610913848285016108dd565b91505092915050565b5f60408201905061092f5f830185610878565b61093c6020830184610670565b9392505050565b5f6040820190506109565f830185610670565b6109636020830184610670565b9392505050565b5f69ffffffffffffffffffff82169050919050565b6109888161096a565b8114610992575f80fd5b50565b5f815190506109a38161097f565b92915050565b5f819050919050565b6109bb816109a9565b81146109c5575f80fd5b50565b5f815190506109d6816109b2565b92915050565b5f815190506109ea8161069c565b92915050565b5f805f805f60a08688031215610a0957610a08610698565b5b5f610a1688828901610995565b9550506020610a27888289016109c8565b9450506040610a38888289016109dc565b9350506060610a49888289016109dc565b9250506080610a5a88828901610995565b9150509295509295909350565b7f496e76616c6964207072696365000000000000000000000000000000000000005f82015250565b5f610a9b600d836106f1565b9150610aa682610a67565b602082019050919050565b5f6020820190508181035f830152610ac881610a8f565b9050919050565b610ad881610633565b8114610ae2575f80fd5b50565b5f81519050610af381610acf565b92915050565b5f60208284031215610b0e57610b0d610698565b5b5f610b1b84828501610ae5565b9150509291505056fea2646970667358221220186df58f6e22929904c980ab3e4ddeafab7fe6f4f5629c8b68080da328bca04c64736f6c634300081a0033",
					"opcodes": "PUSH1 0x80 PUSH1 0x40 MSTORE CALLVALUE DUP1 ISZERO PUSH2 0xF JUMPI PUSH0 DUP1 REVERT JUMPDEST POP PUSH1 0x40 MLOAD PUSH2 0xF61 CODESIZE SUB DUP1 PUSH2 0xF61 DUP4 CODECOPY DUP2 DUP2 ADD PUSH1 0x40 MSTORE DUP2 ADD SWAP1 PUSH2 0x31 SWAP2 SWAP1 PUSH2 0x322 JUMP JUMPDEST DUP5 PUSH0 DUP1 PUSH2 0x100 EXP DUP2 SLOAD DUP2 PUSH20 0xFFFFFFFFFFFFFFFFFFFFFFFFFFFFFFFFFFFFFFFF MUL NOT AND SWAP1 DUP4 PUSH20 0xFFFFFFFFFFFFFFFFFFFFFFFFFFFFFFFFFFFFFFFF AND MUL OR SWAP1 SSTORE POP DUP4 PUSH1 0x1 PUSH0 PUSH2 0x100 EXP DUP2 SLOAD DUP2 PUSH20 0xFFFFFFFFFFFFFFFFFFFFFFFFFFFFFFFFFFFFFFFF MUL NOT AND SWAP1 DUP4 PUSH20 0xFFFFFFFFFFFFFFFFFFFFFFFFFFFFFFFFFFFFFFFF AND MUL OR SWAP1 SSTORE POP DUP3 PUSH1 0x2 PUSH0 PUSH2 0x100 EXP DUP2 SLOAD DUP2 PUSH20 0xFFFFFFFFFFFFFFFFFFFFFFFFFFFFFFFFFFFFFFFF MUL NOT AND SWAP1 DUP4 PUSH20 0xFFFFFFFFFFFFFFFFFFFFFFFFFFFFFFFFFFFFFFFF AND MUL OR SWAP1 SSTORE POP DUP2 PUSH1 0x3 PUSH0 PUSH2 0x100 EXP DUP2 SLOAD DUP2 PUSH20 0xFFFFFFFFFFFFFFFFFFFFFFFFFFFFFFFFFFFFFFFF MUL NOT AND SWAP1 DUP4 PUSH20 0xFFFFFFFFFFFFFFFFFFFFFFFFFFFFFFFFFFFFFFFF AND MUL OR SWAP1 SSTORE POP DUP1 PUSH1 0x4 DUP2 SWAP1 SSTORE POP PUSH1 0x2 PUSH0 SWAP1 SLOAD SWAP1 PUSH2 0x100 EXP SWAP1 DIV PUSH20 0xFFFFFFFFFFFFFFFFFFFFFFFFFFFFFFFFFFFFFFFF AND PUSH20 0xFFFFFFFFFFFFFFFFFFFFFFFFFFFFFFFFFFFFFFFF AND PUSH4 0x313CE567 PUSH1 0x40 MLOAD DUP2 PUSH4 0xFFFFFFFF AND PUSH1 0xE0 SHL DUP2 MSTORE PUSH1 0x4 ADD PUSH1 0x20 PUSH1 0x40 MLOAD DUP1 DUP4 SUB DUP2 DUP7 GAS STATICCALL ISZERO DUP1 ISZERO PUSH2 0x1A1 JUMPI RETURNDATASIZE PUSH0 DUP1 RETURNDATACOPY RETURNDATASIZE PUSH0 REVERT JUMPDEST POP POP POP POP PUSH1 0x40 MLOAD RETURNDATASIZE PUSH1 0x1F NOT PUSH1 0x1F DUP3 ADD AND DUP3 ADD DUP1 PUSH1 0x40 MSTORE POP DUP2 ADD SWAP1 PUSH2 0x1C5 SWAP2 SWAP1 PUSH2 0x3CF JUMP JUMPDEST PUSH1 0x3 PUSH1 0x14 PUSH2 0x100 EXP DUP2 SLOAD DUP2 PUSH1 0xFF MUL NOT AND SWAP1 DUP4 PUSH1 0xFF AND MUL OR SWAP1 SSTORE POP PUSH1 0x3 PUSH0 SWAP1 SLOAD SWAP1 PUSH2 0x100 EXP SWAP1 DIV PUSH20 0xFFFFFFFFFFFFFFFFFFFFFFFFFFFFFFFFFFFFFFFF AND PUSH20 0xFFFFFFFFFFFFFFFFFFFFFFFFFFFFFFFFFFFFFFFF AND PUSH4 0x313CE567 PUSH1 0x40 MLOAD DUP2 PUSH4 0xFFFFFFFF AND PUSH1 0xE0 SHL DUP2 MSTORE PUSH1 0x4 ADD PUSH1 0x20 PUSH1 0x40 MLOAD DUP1 DUP4 SUB DUP2 DUP7 GAS STATICCALL ISZERO DUP1 ISZERO PUSH2 0x249 JUMPI RETURNDATASIZE PUSH0 DUP1 RETURNDATACOPY RETURNDATASIZE PUSH0 REVERT JUMPDEST POP POP POP POP PUSH1 0x40 MLOAD RETURNDATASIZE PUSH1 0x1F NOT PUSH1 0x1F DUP3 ADD AND DUP3 ADD DUP1 PUSH1 0x40 MSTORE POP DUP2 ADD SWAP1 PUSH2 0x26D SWAP2 SWAP1 PUSH2 0x3CF JUMP JUMPDEST PUSH1 0x3 PUSH1 0x15 PUSH2 0x100 EXP DUP2 SLOAD DUP2 PUSH1 0xFF MUL NOT AND SWAP1 DUP4 PUSH1 0xFF AND MUL OR SWAP1 SSTORE POP POP POP POP POP POP PUSH2 0x3FA JUMP JUMPDEST PUSH0 DUP1 REVERT JUMPDEST PUSH0 PUSH20 0xFFFFFFFFFFFFFFFFFFFFFFFFFFFFFFFFFFFFFFFF DUP3 AND SWAP1 POP SWAP2 SWAP1 POP JUMP JUMPDEST PUSH0 PUSH2 0x2BE DUP3 PUSH2 0x295 JUMP JUMPDEST SWAP1 POP SWAP2 SWAP1 POP JUMP JUMPDEST PUSH2 0x2CE DUP2 PUSH2 0x2B4 JUMP JUMPDEST DUP2 EQ PUSH2 0x2D8 JUMPI PUSH0 DUP1 REVERT JUMPDEST POP JUMP JUMPDEST PUSH0 DUP2 MLOAD SWAP1 POP PUSH2 0x2E9 DUP2 PUSH2 0x2C5 JUMP JUMPDEST SWAP3 SWAP2 POP POP JUMP JUMPDEST PUSH0 DUP2 SWAP1 POP SWAP2 SWAP1 POP JUMP JUMPDEST PUSH2 0x301 DUP2 PUSH2 0x2EF JUMP JUMPDEST DUP2 EQ PUSH2 0x30B JUMPI PUSH0 DUP1 REVERT JUMPDEST POP JUMP JUMPDEST PUSH0 DUP2 MLOAD SWAP1 POP PUSH2 0x31C DUP2 PUSH2 0x2F8 JUMP JUMPDEST SWAP3 SWAP2 POP POP JUMP JUMPDEST PUSH0 DUP1 PUSH0 DUP1 PUSH0 PUSH1 0xA0 DUP7 DUP9 SUB SLT ISZERO PUSH2 0x33B JUMPI PUSH2 0x33A PUSH2 0x291 JUMP JUMPDEST JUMPDEST PUSH0 PUSH2 0x348 DUP9 DUP3 DUP10 ADD PUSH2 0x2DB JUMP JUMPDEST SWAP6 POP POP PUSH1 0x20 PUSH2 0x359 DUP9 DUP3 DUP10 ADD PUSH2 0x2DB JUMP JUMPDEST SWAP5 POP POP PUSH1 0x40 PUSH2 0x36A DUP9 DUP3 DUP10 ADD PUSH2 0x2DB JUMP JUMPDEST SWAP4 POP POP PUSH1 0x60 PUSH2 0x37B DUP9 DUP3 DUP10 ADD PUSH2 0x2DB JUMP JUMPDEST SWAP3 POP POP PUSH1 0x80 PUSH2 0x38C DUP9 DUP3 DUP10 ADD PUSH2 0x30E JUMP JUMPDEST SWAP2 POP POP SWAP3 SWAP6 POP SWAP3 SWAP6 SWAP1 SWAP4 POP JUMP JUMPDEST PUSH0 PUSH1 0xFF DUP3 AND SWAP1 POP SWAP2 SWAP1 POP JUMP JUMPDEST PUSH2 0x3AE DUP2 PUSH2 0x399 JUMP JUMPDEST DUP2 EQ PUSH2 0x3B8 JUMPI PUSH0 DUP1 REVERT JUMPDEST POP JUMP JUMPDEST PUSH0 DUP2 MLOAD SWAP1 POP PUSH2 0x3C9 DUP2 PUSH2 0x3A5 JUMP JUMPDEST SWAP3 SWAP2 POP POP JUMP JUMPDEST PUSH0 PUSH1 0x20 DUP3 DUP5 SUB SLT ISZERO PUSH2 0x3E4 JUMPI PUSH2 0x3E3 PUSH2 0x291 JUMP JUMPDEST JUMPDEST PUSH0 PUSH2 0x3F1 DUP5 DUP3 DUP6 ADD PUSH2 0x3BB JUMP JUMPDEST SWAP2 POP POP SWAP3 SWAP2 POP POP JUMP JUMPDEST PUSH2 0xB5A DUP1 PUSH2 0x407 PUSH0 CODECOPY PUSH0 RETURN INVALID PUSH1 0x80 PUSH1 0x40 MSTORE CALLVALUE DUP1 ISZERO PUSH2 0xF JUMPI PUSH0 DUP1 REVERT JUMPDEST POP PUSH1 0x4 CALLDATASIZE LT PUSH2 0x60 JUMPI PUSH0 CALLDATALOAD PUSH1 0xE0 SHR DUP1 PUSH4 0xFC63D10 EQ PUSH2 0x64 JUMPI DUP1 PUSH4 0x485391A0 EQ PUSH2 0x82 JUMPI DUP1 PUSH4 0x4AC1126A EQ PUSH2 0xA0 JUMPI DUP1 PUSH4 0x5F64B55B EQ PUSH2 0xBE JUMPI DUP1 PUSH4 0x94B918DE EQ PUSH2 0xDC JUMPI DUP1 PUSH4 0xB5F4ABF9 EQ PUSH2 0xF8 JUMPI JUMPDEST PUSH0 DUP1 REVERT JUMPDEST PUSH2 0x6C PUSH2 0x116 JUMP JUMPDEST PUSH1 0x40 MLOAD PUSH2 0x79 SWAP2 SWAP1 PUSH2 0x61A JUMP JUMPDEST PUSH1 0x40 MLOAD DUP1 SWAP2 SUB SWAP1 RETURN JUMPDEST PUSH2 0x8A PUSH2 0x139 JUMP JUMPDEST PUSH1 0x40 MLOAD PUSH2 0x97 SWAP2 SWAP1 PUSH2 0x64E JUMP JUMPDEST PUSH1 0x40 MLOAD DUP1 SWAP2 SUB SWAP1 RETURN JUMPDEST PUSH2 0xA8 PUSH2 0x14C JUMP JUMPDEST PUSH1 0x40 MLOAD PUSH2 0xB5 SWAP2 SWAP1 PUSH2 0x67F JUMP JUMPDEST PUSH1 0x40 MLOAD DUP1 SWAP2 SUB SWAP1 RETURN JUMPDEST PUSH2 0xC6 PUSH2 0x152 JUMP JUMPDEST PUSH1 0x40 MLOAD PUSH2 0xD3 SWAP2 SWAP1 PUSH2 0x61A JUMP JUMPDEST PUSH1 0x40 MLOAD DUP1 SWAP2 SUB SWAP1 RETURN JUMPDEST PUSH2 0xF6 PUSH1 0x4 DUP1 CALLDATASIZE SUB DUP2 ADD SWAP1 PUSH2 0xF1 SWAP2 SWAP1 PUSH2 0x6C6 JUMP JUMPDEST PUSH2 0x177 JUMP JUMPDEST STOP JUMPDEST PUSH2 0x100 PUSH2 0x455 JUMP JUMPDEST PUSH1 0x40 MLOAD PUSH2 0x10D SWAP2 SWAP1 PUSH2 0x64E JUMP JUMPDEST PUSH1 0x40 MLOAD DUP1 SWAP2 SUB SWAP1 RETURN JUMPDEST PUSH0 DUP1 SLOAD SWAP1 PUSH2 0x100 EXP SWAP1 DIV PUSH20 0xFFFFFFFFFFFFFFFFFFFFFFFFFFFFFFFFFFFFFFFF AND DUP2 JUMP JUMPDEST PUSH1 0x3 PUSH1 0x15 SWAP1 SLOAD SWAP1 PUSH2 0x100 EXP SWAP1 DIV PUSH1 0xFF AND DUP2 JUMP JUMPDEST PUSH1 0x4 SLOAD DUP2 JUMP JUMPDEST PUSH1 0x1 PUSH0 SWAP1 SLOAD SWAP1 PUSH2 0x100 EXP SWAP1 DIV PUSH20 0xFFFFFFFFFFFFFFFFFFFFFFFFFFFFFFFFFFFFFFFF AND DUP2 JUMP JUMPDEST PUSH0 DUP2 GT PUSH2 0x1B9 JUMPI PUSH1 0x40 MLOAD PUSH32 0x8C379A000000000000000000000000000000000000000000000000000000000 DUP2 MSTORE PUSH1 0x4 ADD PUSH2 0x1B0 SWAP1 PUSH2 0x74B JUMP JUMPDEST PUSH1 0x40 MLOAD DUP1 SWAP2 SUB SWAP1 REVERT JUMPDEST PUSH0 PUSH2 0x1E4 PUSH1 0x2 PUSH0 SWAP1 SLOAD SWAP1 PUSH2 0x100 EXP SWAP1 DIV PUSH20 0xFFFFFFFFFFFFFFFFFFFFFFFFFFFFFFFFFFFFFFFF AND PUSH2 0x468 JUMP JUMPDEST POP SWAP1 POP PUSH0 PUSH2 0x212 PUSH1 0x3 PUSH0 SWAP1 SLOAD SWAP1 PUSH2 0x100 EXP SWAP1 DIV PUSH20 0xFFFFFFFFFFFFFFFFFFFFFFFFFFFFFFFFFFFFFFFF AND PUSH2 0x468 JUMP JUMPDEST POP SWAP1 POP PUSH0 PUSH1 0x64 DUP3 PUSH2 0x223 SWAP2 SWAP1 PUSH2 0x796 JUMP JUMPDEST PUSH1 0x4 SLOAD PUSH1 0x64 PUSH2 0x232 SWAP2 SWAP1 PUSH2 0x7D7 JUMP JUMPDEST DUP5 DUP7 PUSH2 0x23E SWAP2 SWAP1 PUSH2 0x796 JUMP JUMPDEST PUSH2 0x248 SWAP2 SWAP1 PUSH2 0x796 JUMP JUMPDEST PUSH2 0x252 SWAP2 SWAP1 PUSH2 0x837 JUMP JUMPDEST SWAP1 POP PUSH0 DUP1 SLOAD SWAP1 PUSH2 0x100 EXP SWAP1 DIV PUSH20 0xFFFFFFFFFFFFFFFFFFFFFFFFFFFFFFFFFFFFFFFF AND PUSH20 0xFFFFFFFFFFFFFFFFFFFFFFFFFFFFFFFFFFFFFFFF AND PUSH4 0x23B872DD CALLER ADDRESS DUP8 PUSH1 0x40 MLOAD DUP5 PUSH4 0xFFFFFFFF AND PUSH1 0xE0 SHL DUP2 MSTORE PUSH1 0x4 ADD PUSH2 0x2B0 SWAP4 SWAP3 SWAP2 SWAP1 PUSH2 0x887 JUMP JUMPDEST PUSH1 0x20 PUSH1 0x40 MLOAD DUP1 DUP4 SUB DUP2 PUSH0 DUP8 GAS CALL ISZERO DUP1 ISZERO PUSH2 0x2CC JUMPI RETURNDATASIZE PUSH0 DUP1 RETURNDATACOPY RETURNDATASIZE PUSH0 REVERT JUMPDEST POP POP POP POP PUSH1 0x40 MLOAD RETURNDATASIZE PUSH1 0x1F NOT PUSH1 0x1F DUP3 ADD AND DUP3 ADD DUP1 PUSH1 0x40 MSTORE POP DUP2 ADD SWAP1 PUSH2 0x2F0 SWAP2 SWAP1 PUSH2 0x8F1 JUMP JUMPDEST POP PUSH0 DUP1 SLOAD SWAP1 PUSH2 0x100 EXP SWAP1 DIV PUSH20 0xFFFFFFFFFFFFFFFFFFFFFFFFFFFFFFFFFFFFFFFF AND PUSH20 0xFFFFFFFFFFFFFFFFFFFFFFFFFFFFFFFFFFFFFFFF AND PUSH4 0x42966C68 DUP6 PUSH1 0x40 MLOAD DUP3 PUSH4 0xFFFFFFFF AND PUSH1 0xE0 SHL DUP2 MSTORE PUSH1 0x4 ADD PUSH2 0x349 SWAP2 SWAP1 PUSH2 0x67F JUMP JUMPDEST PUSH0 PUSH1 0x40 MLOAD DUP1 DUP4 SUB DUP2 PUSH0 DUP8 DUP1 EXTCODESIZE ISZERO DUP1 ISZERO PUSH2 0x360 JUMPI PUSH0 DUP1 REVERT JUMPDEST POP GAS CALL ISZERO DUP1 ISZERO PUSH2 0x372 JUMPI RETURNDATASIZE PUSH0 DUP1 RETURNDATACOPY RETURNDATASIZE PUSH0 REVERT JUMPDEST POP POP POP POP PUSH1 0x1 PUSH0 SWAP1 SLOAD SWAP1 PUSH2 0x100 EXP SWAP1 DIV PUSH20 0xFFFFFFFFFFFFFFFFFFFFFFFFFFFFFFFFFFFFFFFF AND PUSH20 0xFFFFFFFFFFFFFFFFFFFFFFFFFFFFFFFFFFFFFFFF AND PUSH4 0x40C10F19 CALLER DUP4 PUSH1 0x40 MLOAD DUP4 PUSH4 0xFFFFFFFF AND PUSH1 0xE0 SHL DUP2 MSTORE PUSH1 0x4 ADD PUSH2 0x3D2 SWAP3 SWAP2 SWAP1 PUSH2 0x91C JUMP JUMPDEST PUSH0 PUSH1 0x40 MLOAD DUP1 DUP4 SUB DUP2 PUSH0 DUP8 DUP1 EXTCODESIZE ISZERO DUP1 ISZERO PUSH2 0x3E9 JUMPI PUSH0 DUP1 REVERT JUMPDEST POP GAS CALL ISZERO DUP1 ISZERO PUSH2 0x3FB JUMPI RETURNDATASIZE PUSH0 DUP1 RETURNDATACOPY RETURNDATASIZE PUSH0 REVERT JUMPDEST POP POP POP POP CALLER PUSH20 0xFFFFFFFFFFFFFFFFFFFFFFFFFFFFFFFFFFFFFFFF AND PUSH32 0x77F92A1B6A1A11DE8CA49515AD4C1FAD45632DD3442167D74B90B304A3C7A758 DUP6 DUP4 PUSH1 0x40 MLOAD PUSH2 0x447 SWAP3 SWAP2 SWAP1 PUSH2 0x943 JUMP JUMPDEST PUSH1 0x40 MLOAD DUP1 SWAP2 SUB SWAP1 LOG2 POP POP POP POP JUMP JUMPDEST PUSH1 0x3 PUSH1 0x14 SWAP1 SLOAD SWAP1 PUSH2 0x100 EXP SWAP1 DIV PUSH1 0xFF AND DUP2 JUMP JUMPDEST PUSH0 DUP1 PUSH0 DUP4 PUSH20 0xFFFFFFFFFFFFFFFFFFFFFFFFFFFFFFFFFFFFFFFF AND PUSH4 0xFEAF968C PUSH1 0x40 MLOAD DUP2 PUSH4 0xFFFFFFFF AND PUSH1 0xE0 SHL DUP2 MSTORE PUSH1 0x4 ADD PUSH1 0xA0 PUSH1 0x40 MLOAD DUP1 DUP4 SUB DUP2 DUP7 GAS STATICCALL ISZERO DUP1 ISZERO PUSH2 0x4B4 JUMPI RETURNDATASIZE PUSH0 DUP1 RETURNDATACOPY RETURNDATASIZE PUSH0 REVERT JUMPDEST POP POP POP POP PUSH1 0x40 MLOAD RETURNDATASIZE PUSH1 0x1F NOT PUSH1 0x1F DUP3 ADD AND DUP3 ADD DUP1 PUSH1 0x40 MSTORE POP DUP2 ADD SWAP1 PUSH2 0x4D8 SWAP2 SWAP1 PUSH2 0x9F0 JUMP JUMPDEST POP POP POP SWAP2 POP POP PUSH0 DUP2 SGT PUSH2 0x520 JUMPI PUSH1 0x40 MLOAD PUSH32 0x8C379A000000000000000000000000000000000000000000000000000000000 DUP2 MSTORE PUSH1 0x4 ADD PUSH2 0x517 SWAP1 PUSH2 0xAB1 JUMP JUMPDEST PUSH1 0x40 MLOAD DUP1 SWAP2 SUB SWAP1 REVERT JUMPDEST PUSH0 DUP5 PUSH20 0xFFFFFFFFFFFFFFFFFFFFFFFFFFFFFFFFFFFFFFFF AND PUSH4 0x313CE567 PUSH1 0x40 MLOAD DUP2 PUSH4 0xFFFFFFFF AND PUSH1 0xE0 SHL DUP2 MSTORE PUSH1 0x4 ADD PUSH1 0x20 PUSH1 0x40 MLOAD DUP1 DUP4 SUB DUP2 DUP7 GAS STATICCALL ISZERO DUP1 ISZERO PUSH2 0x56A JUMPI RETURNDATASIZE PUSH0 DUP1 RETURNDATACOPY RETURNDATASIZE PUSH0 REVERT JUMPDEST POP POP POP POP PUSH1 0x40 MLOAD RETURNDATASIZE PUSH1 0x1F NOT PUSH1 0x1F DUP3 ADD AND DUP3 ADD DUP1 PUSH1 0x40 MSTORE POP DUP2 ADD SWAP1 PUSH2 0x58E SWAP2 SWAP1 PUSH2 0xAF9 JUMP JUMPDEST SWAP1 POP DUP2 DUP2 PUSH1 0xFF AND SWAP4 POP SWAP4 POP POP POP SWAP2 POP SWAP2 JUMP JUMPDEST PUSH0 PUSH20 0xFFFFFFFFFFFFFFFFFFFFFFFFFFFFFFFFFFFFFFFF DUP3 AND SWAP1 POP SWAP2 SWAP1 POP JUMP JUMPDEST PUSH0 DUP2 SWAP1 POP SWAP2 SWAP1 POP JUMP JUMPDEST PUSH0 PUSH2 0x5E2 PUSH2 0x5DD PUSH2 0x5D8 DUP5 PUSH2 0x5A0 JUMP JUMPDEST PUSH2 0x5BF JUMP JUMPDEST PUSH2 0x5A0 JUMP JUMPDEST SWAP1 POP SWAP2 SWAP1 POP JUMP JUMPDEST PUSH0 PUSH2 0x5F3 DUP3 PUSH2 0x5C8 JUMP JUMPDEST SWAP1 POP SWAP2 SWAP1 POP JUMP JUMPDEST PUSH0 PUSH2 0x604 DUP3 PUSH2 0x5E9 JUMP JUMPDEST SWAP1 POP SWAP2 SWAP1 POP JUMP JUMPDEST PUSH2 0x614 DUP2 PUSH2 0x5FA JUMP JUMPDEST DUP3 MSTORE POP POP JUMP JUMPDEST PUSH0 PUSH1 0x20 DUP3 ADD SWAP1 POP PUSH2 0x62D PUSH0 DUP4 ADD DUP5 PUSH2 0x60B JUMP JUMPDEST SWAP3 SWAP2 POP POP JUMP JUMPDEST PUSH0 PUSH1 0xFF DUP3 AND SWAP1 POP SWAP2 SWAP1 POP JUMP JUMPDEST PUSH2 0x648 DUP2 PUSH2 0x633 JUMP JUMPDEST DUP3 MSTORE POP POP JUMP JUMPDEST PUSH0 PUSH1 0x20 DUP3 ADD SWAP1 POP PUSH2 0x661 PUSH0 DUP4 ADD DUP5 PUSH2 0x63F JUMP JUMPDEST SWAP3 SWAP2 POP POP JUMP JUMPDEST PUSH0 DUP2 SWAP1 POP SWAP2 SWAP1 POP JUMP JUMPDEST PUSH2 0x679 DUP2 PUSH2 0x667 JUMP JUMPDEST DUP3 MSTORE POP POP JUMP JUMPDEST PUSH0 PUSH1 0x20 DUP3 ADD SWAP1 POP PUSH2 0x692 PUSH0 DUP4 ADD DUP5 PUSH2 0x670 JUMP JUMPDEST SWAP3 SWAP2 POP POP JUMP JUMPDEST PUSH0 DUP1 REVERT JUMPDEST PUSH2 0x6A5 DUP2 PUSH2 0x667 JUMP JUMPDEST DUP2 EQ PUSH2 0x6AF JUMPI PUSH0 DUP1 REVERT JUMPDEST POP JUMP JUMPDEST PUSH0 DUP2 CALLDATALOAD SWAP1 POP PUSH2 0x6C0 DUP2 PUSH2 0x69C JUMP JUMPDEST SWAP3 SWAP2 POP POP JUMP JUMPDEST PUSH0 PUSH1 0x20 DUP3 DUP5 SUB SLT ISZERO PUSH2 0x6DB JUMPI PUSH2 0x6DA PUSH2 0x698 JUMP JUMPDEST JUMPDEST PUSH0 PUSH2 0x6E8 DUP5 DUP3 DUP6 ADD PUSH2 0x6B2 JUMP JUMPDEST SWAP2 POP POP SWAP3 SWAP2 POP POP JUMP JUMPDEST PUSH0 DUP3 DUP3 MSTORE PUSH1 0x20 DUP3 ADD SWAP1 POP SWAP3 SWAP2 POP POP JUMP JUMPDEST PUSH32 0x416D6F756E74206D7573742062652067726561746572207468616E207A65726F PUSH0 DUP3 ADD MSTORE POP JUMP JUMPDEST PUSH0 PUSH2 0x735 PUSH1 0x20 DUP4 PUSH2 0x6F1 JUMP JUMPDEST SWAP2 POP PUSH2 0x740 DUP3 PUSH2 0x701 JUMP JUMPDEST PUSH1 0x20 DUP3 ADD SWAP1 POP SWAP2 SWAP1 POP JUMP JUMPDEST PUSH0 PUSH1 0x20 DUP3 ADD SWAP1 POP DUP2 DUP2 SUB PUSH0 DUP4 ADD MSTORE PUSH2 0x762 DUP2 PUSH2 0x729 JUMP JUMPDEST SWAP1 POP SWAP2 SWAP1 POP JUMP JUMPDEST PUSH32 0x4E487B7100000000000000000000000000000000000000000000000000000000 PUSH0 MSTORE PUSH1 0x11 PUSH1 0x4 MSTORE PUSH1 0x24 PUSH0 REVERT JUMPDEST PUSH0 PUSH2 0x7A0 DUP3 PUSH2 0x667 JUMP JUMPDEST SWAP2 POP PUSH2 0x7AB DUP4 PUSH2 0x667 JUMP JUMPDEST SWAP3 POP DUP3 DUP3 MUL PUSH2 0x7B9 DUP2 PUSH2 0x667 JUMP JUMPDEST SWAP2 POP DUP3 DUP3 DIV DUP5 EQ DUP4 ISZERO OR PUSH2 0x7D0 JUMPI PUSH2 0x7CF PUSH2 0x769 JUMP JUMPDEST JUMPDEST POP SWAP3 SWAP2 POP POP JUMP JUMPDEST PUSH0 PUSH2 0x7E1 DUP3 PUSH2 0x667 JUMP JUMPDEST SWAP2 POP PUSH2 0x7EC DUP4 PUSH2 0x667 JUMP JUMPDEST SWAP3 POP DUP3 DUP3 ADD SWAP1 POP DUP1 DUP3 GT ISZERO PUSH2 0x804 JUMPI PUSH2 0x803 PUSH2 0x769 JUMP JUMPDEST JUMPDEST SWAP3 SWAP2 POP POP JUMP JUMPDEST PUSH32 0x4E487B7100000000000000000000000000000000000000000000000000000000 PUSH0 MSTORE PUSH1 0x12 PUSH1 0x4 MSTORE PUSH1 0x24 PUSH0 REVERT JUMPDEST PUSH0 PUSH2 0x841 DUP3 PUSH2 0x667 JUMP JUMPDEST SWAP2 POP PUSH2 0x84C DUP4 PUSH2 0x667 JUMP JUMPDEST SWAP3 POP DUP3 PUSH2 0x85C JUMPI PUSH2 0x85B PUSH2 0x80A JUMP JUMPDEST JUMPDEST DUP3 DUP3 DIV SWAP1 POP SWAP3 SWAP2 POP POP JUMP JUMPDEST PUSH0 PUSH2 0x871 DUP3 PUSH2 0x5A0 JUMP JUMPDEST SWAP1 POP SWAP2 SWAP1 POP JUMP JUMPDEST PUSH2 0x881 DUP2 PUSH2 0x867 JUMP JUMPDEST DUP3 MSTORE POP POP JUMP JUMPDEST PUSH0 PUSH1 0x60 DUP3 ADD SWAP1 POP PUSH2 0x89A PUSH0 DUP4 ADD DUP7 PUSH2 0x878 JUMP JUMPDEST PUSH2 0x8A7 PUSH1 0x20 DUP4 ADD DUP6 PUSH2 0x878 JUMP JUMPDEST PUSH2 0x8B4 PUSH1 0x40 DUP4 ADD DUP5 PUSH2 0x670 JUMP JUMPDEST SWAP5 SWAP4 POP POP POP POP JUMP JUMPDEST PUSH0 DUP2 ISZERO ISZERO SWAP1 POP SWAP2 SWAP1 POP JUMP JUMPDEST PUSH2 0x8D0 DUP2 PUSH2 0x8BC JUMP JUMPDEST DUP2 EQ PUSH2 0x8DA JUMPI PUSH0 DUP1 REVERT JUMPDEST POP JUMP JUMPDEST PUSH0 DUP2 MLOAD SWAP1 POP PUSH2 0x8EB DUP2 PUSH2 0x8C7 JUMP JUMPDEST SWAP3 SWAP2 POP POP JUMP JUMPDEST PUSH0 PUSH1 0x20 DUP3 DUP5 SUB SLT ISZERO PUSH2 0x906 JUMPI PUSH2 0x905 PUSH2 0x698 JUMP JUMPDEST JUMPDEST PUSH0 PUSH2 0x913 DUP5 DUP3 DUP6 ADD PUSH2 0x8DD JUMP JUMPDEST SWAP2 POP POP SWAP3 SWAP2 POP POP JUMP JUMPDEST PUSH0 PUSH1 0x40 DUP3 ADD SWAP1 POP PUSH2 0x92F PUSH0 DUP4 ADD DUP6 PUSH2 0x878 JUMP JUMPDEST PUSH2 0x93C PUSH1 0x20 DUP4 ADD DUP5 PUSH2 0x670 JUMP JUMPDEST SWAP4 SWAP3 POP POP POP JUMP JUMPDEST PUSH0 PUSH1 0x40 DUP3 ADD SWAP1 POP PUSH2 0x956 PUSH0 DUP4 ADD DUP6 PUSH2 0x670 JUMP JUMPDEST PUSH2 0x963 PUSH1 0x20 DUP4 ADD DUP5 PUSH2 0x670 JUMP JUMPDEST SWAP4 SWAP3 POP POP POP JUMP JUMPDEST PUSH0 PUSH10 0xFFFFFFFFFFFFFFFFFFFF DUP3 AND SWAP1 POP SWAP2 SWAP1 POP JUMP JUMPDEST PUSH2 0x988 DUP2 PUSH2 0x96A JUMP JUMPDEST DUP2 EQ PUSH2 0x992 JUMPI PUSH0 DUP1 REVERT JUMPDEST POP JUMP JUMPDEST PUSH0 DUP2 MLOAD SWAP1 POP PUSH2 0x9A3 DUP2 PUSH2 0x97F JUMP JUMPDEST SWAP3 SWAP2 POP POP JUMP JUMPDEST PUSH0 DUP2 SWAP1 POP SWAP2 SWAP1 POP JUMP JUMPDEST PUSH2 0x9BB DUP2 PUSH2 0x9A9 JUMP JUMPDEST DUP2 EQ PUSH2 0x9C5 JUMPI PUSH0 DUP1 REVERT JUMPDEST POP JUMP JUMPDEST PUSH0 DUP2 MLOAD SWAP1 POP PUSH2 0x9D6 DUP2 PUSH2 0x9B2 JUMP JUMPDEST SWAP3 SWAP2 POP POP JUMP JUMPDEST PUSH0 DUP2 MLOAD SWAP1 POP PUSH2 0x9EA DUP2 PUSH2 0x69C JUMP JUMPDEST SWAP3 SWAP2 POP POP JUMP JUMPDEST PUSH0 DUP1 PUSH0 DUP1 PUSH0 PUSH1 0xA0 DUP7 DUP9 SUB SLT ISZERO PUSH2 0xA09 JUMPI PUSH2 0xA08 PUSH2 0x698 JUMP JUMPDEST JUMPDEST PUSH0 PUSH2 0xA16 DUP9 DUP3 DUP10 ADD PUSH2 0x995 JUMP JUMPDEST SWAP6 POP POP PUSH1 0x20 PUSH2 0xA27 DUP9 DUP3 DUP10 ADD PUSH2 0x9C8 JUMP JUMPDEST SWAP5 POP POP PUSH1 0x40 PUSH2 0xA38 DUP9 DUP3 DUP10 ADD PUSH2 0x9DC JUMP JUMPDEST SWAP4 POP POP PUSH1 0x60 PUSH2 0xA49 DUP9 DUP3 DUP10 ADD PUSH2 0x9DC JUMP JUMPDEST SWAP3 POP POP PUSH1 0x80 PUSH2 0xA5A DUP9 DUP3 DUP10 ADD PUSH2 0x995 JUMP JUMPDEST SWAP2 POP POP SWAP3 SWAP6 POP SWAP3 SWAP6 SWAP1 SWAP4 POP JUMP JUMPDEST PUSH32 0x496E76616C696420707269636500000000000000000000000000000000000000 PUSH0 DUP3 ADD MSTORE POP JUMP JUMPDEST PUSH0 PUSH2 0xA9B PUSH1 0xD DUP4 PUSH2 0x6F1 JUMP JUMPDEST SWAP2 POP PUSH2 0xAA6 DUP3 PUSH2 0xA67 JUMP JUMPDEST PUSH1 0x20 DUP3 ADD SWAP1 POP SWAP2 SWAP1 POP JUMP JUMPDEST PUSH0 PUSH1 0x20 DUP3 ADD SWAP1 POP DUP2 DUP2 SUB PUSH0 DUP4 ADD MSTORE PUSH2 0xAC8 DUP2 PUSH2 0xA8F JUMP JUMPDEST SWAP1 POP SWAP2 SWAP1 POP JUMP JUMPDEST PUSH2 0xAD8 DUP2 PUSH2 0x633 JUMP JUMPDEST DUP2 EQ PUSH2 0xAE2 JUMPI PUSH0 DUP1 REVERT JUMPDEST POP JUMP JUMPDEST PUSH0 DUP2 MLOAD SWAP1 POP PUSH2 0xAF3 DUP2 PUSH2 0xACF JUMP JUMPDEST SWAP3 SWAP2 POP POP JUMP JUMPDEST PUSH0 PUSH1 0x20 DUP3 DUP5 SUB SLT ISZERO PUSH2 0xB0E JUMPI PUSH2 0xB0D PUSH2 0x698 JUMP JUMPDEST JUMPDEST PUSH0 PUSH2 0xB1B DUP5 DUP3 DUP6 ADD PUSH2 0xAE5 JUMP JUMPDEST SWAP2 POP POP SWAP3 SWAP2 POP POP JUMP INVALID LOG2 PUSH5 0x6970667358 0x22 SLT KECCAK256 XOR PUSH14 0xF58F6E22929904C980AB3E4DDEAF 0xAB PUSH32 0xE6F4F5629C8B68080DA328BCA04C64736F6C634300081A003300000000000000 "
				},
				"gasEstimates": {
					"creation": {
						"codeDepositCost": "581200",
						"executionCost": "infinite",
						"totalCost": "infinite"
					},
					"external": {
						"swap(uint256)": "infinite",
						"swapPercent()": "2447",
						"tokenA()": "infinite",
						"tokenADecimals()": "2605",
						"tokenB()": "infinite",
						"tokenBDecimals()": "2517"
					},
					"internal": {
						"_getLatestPrice(contract AggregatorV3Interface)": "infinite"
					}
				},
				"methodIdentifiers": {
					"swap(uint256)": "94b918de",
					"swapPercent()": "4ac1126a",
					"tokenA()": "0fc63d10",
					"tokenADecimals()": "b5f4abf9",
					"tokenB()": "5f64b55b",
					"tokenBDecimals()": "485391a0"
				}
			},
			"storageLayout": {
				"storage": [
					{
						"astId": 6,
						"contract": "contracts/Swap.sol:TokenSwap",
						"label": "tokenA",
						"offset": 0,
						"slot": "0",
						"type": "t_contract(ICustomERC20)325"
					},
					{
						"astId": 9,
						"contract": "contracts/Swap.sol:TokenSwap",
						"label": "tokenB",
						"offset": 0,
						"slot": "1",
						"type": "t_contract(ICustomERC20)325"
					},
					{
						"astId": 12,
						"contract": "contracts/Swap.sol:TokenSwap",
						"label": "priceFeedA",
						"offset": 0,
						"slot": "2",
						"type": "t_contract(AggregatorV3Interface)245"
					},
					{
						"astId": 15,
						"contract": "contracts/Swap.sol:TokenSwap",
						"label": "priceFeedB",
						"offset": 0,
						"slot": "3",
						"type": "t_contract(AggregatorV3Interface)245"
					},
					{
						"astId": 17,
						"contract": "contracts/Swap.sol:TokenSwap",
						"label": "tokenADecimals",
						"offset": 20,
						"slot": "3",
						"type": "t_uint8"
					},
					{
						"astId": 19,
						"contract": "contracts/Swap.sol:TokenSwap",
						"label": "tokenBDecimals",
						"offset": 21,
						"slot": "3",
						"type": "t_uint8"
					},
					{
						"astId": 21,
						"contract": "contracts/Swap.sol:TokenSwap",
						"label": "swapPercent",
						"offset": 0,
						"slot": "4",
						"type": "t_uint256"
					}
				],
				"types": {
					"t_contract(AggregatorV3Interface)245": {
						"encoding": "inplace",
						"label": "contract AggregatorV3Interface",
						"numberOfBytes": "20"
					},
					"t_contract(ICustomERC20)325": {
						"encoding": "inplace",
						"label": "contract ICustomERC20",
						"numberOfBytes": "20"
					},
					"t_uint256": {
						"encoding": "inplace",
						"label": "uint256",
						"numberOfBytes": "32"
					},
					"t_uint8": {
						"encoding": "inplace",
						"label": "uint8",
						"numberOfBytes": "1"
					}
				}
			},
			"userdoc": {
				"kind": "user",
				"methods": {},
				"version": 1
			}
		}
	}
}